{
  "abi": [
    {
      "inputs": [
        {
          "internalType": "address",
          "name": "owner",
          "type": "address"
        },
        {
          "internalType": "string",
          "name": "base",
          "type": "string"
        },
        {
          "internalType": "uint256",
          "name": "price",
          "type": "uint256"
        },
        {
          "internalType": "uint256",
          "name": "maxTokenId",
          "type": "uint256"
        }
      ],
      "stateMutability": "nonpayable",
      "type": "constructor"
    },
    {
      "anonymous": false,
      "inputs": [
        {
          "indexed": true,
          "internalType": "address",
          "name": "owner",
          "type": "address"
        },
        {
          "indexed": true,
          "internalType": "address",
          "name": "approved",
          "type": "address"
        },
        {
          "indexed": true,
          "internalType": "uint256",
          "name": "tokenId",
          "type": "uint256"
        }
      ],
      "name": "Approval",
      "type": "event"
    },
    {
      "anonymous": false,
      "inputs": [
        {
          "indexed": true,
          "internalType": "address",
          "name": "owner",
          "type": "address"
        },
        {
          "indexed": true,
          "internalType": "address",
          "name": "operator",
          "type": "address"
        },
        {
          "indexed": false,
          "internalType": "bool",
          "name": "approved",
          "type": "bool"
        }
      ],
      "name": "ApprovalForAll",
      "type": "event"
    },
    {
      "anonymous": false,
      "inputs": [
        {
          "indexed": true,
          "internalType": "address",
          "name": "previousOwner",
          "type": "address"
        },
        {
          "indexed": true,
          "internalType": "address",
          "name": "newOwner",
          "type": "address"
        }
      ],
      "name": "OwnershipTransferred",
      "type": "event"
    },
    {
      "anonymous": false,
      "inputs": [
        {
          "indexed": false,
          "internalType": "string",
          "name": "base",
          "type": "string"
        },
        {
          "indexed": false,
          "internalType": "address",
          "name": "sender",
          "type": "address"
        }
      ],
      "name": "SetOffChainImageBase",
      "type": "event"
    },
    {
      "anonymous": false,
      "inputs": [
        {
          "indexed": false,
          "internalType": "bool",
          "name": "value",
          "type": "bool"
        },
        {
          "indexed": false,
          "internalType": "uint256",
          "name": "tokenId",
          "type": "uint256"
        },
        {
          "indexed": false,
          "internalType": "address",
          "name": "sender",
          "type": "address"
        }
      ],
      "name": "SetTokenSvgOverride",
      "type": "event"
    },
    {
      "anonymous": false,
      "inputs": [
        {
          "indexed": true,
          "internalType": "address",
          "name": "from",
          "type": "address"
        },
        {
          "indexed": true,
          "internalType": "address",
          "name": "to",
          "type": "address"
        },
        {
          "indexed": true,
          "internalType": "uint256",
          "name": "tokenId",
          "type": "uint256"
        }
      ],
      "name": "Transfer",
      "type": "event"
    },
    {
      "inputs": [
        {
          "internalType": "address",
          "name": "to",
          "type": "address"
        },
        {
          "internalType": "uint256",
          "name": "tokenId",
          "type": "uint256"
        }
      ],
      "name": "approve",
      "outputs": [],
      "stateMutability": "nonpayable",
      "type": "function"
    },
    {
      "inputs": [
        {
          "internalType": "address",
          "name": "owner",
          "type": "address"
        }
      ],
      "name": "balanceOf",
      "outputs": [
        {
          "internalType": "uint256",
          "name": "",
          "type": "uint256"
        }
      ],
      "stateMutability": "view",
      "type": "function"
    },
    {
      "inputs": [
        {
          "internalType": "uint256",
          "name": "tokenId",
          "type": "uint256"
        }
      ],
      "name": "exists",
      "outputs": [
        {
          "internalType": "bool",
          "name": "",
          "type": "bool"
        }
      ],
      "stateMutability": "view",
      "type": "function"
    },
    {
      "inputs": [
        {
          "internalType": "uint256",
          "name": "tokenId",
          "type": "uint256"
        }
      ],
      "name": "getApproved",
      "outputs": [
        {
          "internalType": "address",
          "name": "",
          "type": "address"
        }
      ],
      "stateMutability": "view",
      "type": "function"
    },
    {
      "inputs": [
        {
          "internalType": "address",
          "name": "owner",
          "type": "address"
        },
        {
          "internalType": "address",
          "name": "operator",
          "type": "address"
        }
      ],
      "name": "isApprovedForAll",
      "outputs": [
        {
          "internalType": "bool",
          "name": "",
          "type": "bool"
        }
      ],
      "stateMutability": "view",
      "type": "function"
    },
    {
      "inputs": [
        {
          "internalType": "uint256",
          "name": "tokenId",
          "type": "uint256"
        }
      ],
      "name": "isTokenImageSvg",
      "outputs": [
        {
          "internalType": "bool",
          "name": "",
          "type": "bool"
        }
      ],
      "stateMutability": "view",
      "type": "function"
    },
    {
      "inputs": [],
      "name": "maxSupply",
      "outputs": [
        {
          "internalType": "uint256",
          "name": "",
          "type": "uint256"
        }
      ],
      "stateMutability": "view",
      "type": "function"
    },
    {
      "inputs": [
        {
          "internalType": "address",
          "name": "receiver",
          "type": "address"
        }
      ],
      "name": "mint",
      "outputs": [
        {
          "internalType": "uint256",
          "name": "tokenId",
          "type": "uint256"
        }
      ],
      "stateMutability": "payable",
      "type": "function"
    },
    {
      "inputs": [],
      "name": "mintPrice",
      "outputs": [
        {
          "internalType": "uint256",
          "name": "",
          "type": "uint256"
        }
      ],
      "stateMutability": "view",
      "type": "function"
    },
    {
      "inputs": [],
      "name": "name",
      "outputs": [
        {
          "internalType": "string",
          "name": "",
          "type": "string"
        }
      ],
      "stateMutability": "view",
      "type": "function"
    },
    {
      "inputs": [],
      "name": "offchainImageBase",
      "outputs": [
        {
          "internalType": "string",
          "name": "",
          "type": "string"
        }
      ],
      "stateMutability": "view",
      "type": "function"
    },
    {
      "inputs": [],
      "name": "owner",
      "outputs": [
        {
          "internalType": "address",
          "name": "",
          "type": "address"
        }
      ],
      "stateMutability": "view",
      "type": "function"
    },
    {
      "inputs": [
        {
          "internalType": "uint256",
          "name": "tokenId",
          "type": "uint256"
        }
      ],
      "name": "ownerOf",
      "outputs": [
        {
          "internalType": "address",
          "name": "",
          "type": "address"
        }
      ],
      "stateMutability": "view",
      "type": "function"
    },
    {
      "inputs": [],
      "name": "renounceOwnership",
      "outputs": [],
      "stateMutability": "nonpayable",
      "type": "function"
    },
    {
      "inputs": [
        {
          "internalType": "address",
          "name": "from",
          "type": "address"
        },
        {
          "internalType": "address",
          "name": "to",
          "type": "address"
        },
        {
          "internalType": "uint256",
          "name": "tokenId",
          "type": "uint256"
        }
      ],
      "name": "safeTransferFrom",
      "outputs": [],
      "stateMutability": "nonpayable",
      "type": "function"
    },
    {
      "inputs": [
        {
          "internalType": "address",
          "name": "from",
          "type": "address"
        },
        {
          "internalType": "address",
          "name": "to",
          "type": "address"
        },
        {
          "internalType": "uint256",
          "name": "tokenId",
          "type": "uint256"
        },
        {
          "internalType": "bytes",
          "name": "data",
          "type": "bytes"
        }
      ],
      "name": "safeTransferFrom",
      "outputs": [],
      "stateMutability": "nonpayable",
      "type": "function"
    },
    {
      "inputs": [
        {
          "internalType": "address",
          "name": "operator",
          "type": "address"
        },
        {
          "internalType": "bool",
          "name": "approved",
          "type": "bool"
        }
      ],
      "name": "setApprovalForAll",
      "outputs": [],
      "stateMutability": "nonpayable",
      "type": "function"
    },
    {
      "inputs": [
        {
          "internalType": "string",
          "name": "base",
          "type": "string"
        }
      ],
      "name": "setOffchainImageBase",
      "outputs": [],
      "stateMutability": "nonpayable",
      "type": "function"
    },
    {
      "inputs": [
        {
          "internalType": "uint256",
          "name": "tokenId",
          "type": "uint256"
        },
        {
          "internalType": "bool",
          "name": "value",
          "type": "bool"
        }
      ],
      "name": "setTokenSvgOverride",
      "outputs": [],
      "stateMutability": "nonpayable",
      "type": "function"
    },
    {
      "inputs": [
        {
          "internalType": "bytes4",
          "name": "interfaceId",
          "type": "bytes4"
        }
      ],
      "name": "supportsInterface",
      "outputs": [
        {
          "internalType": "bool",
          "name": "",
          "type": "bool"
        }
      ],
      "stateMutability": "view",
      "type": "function"
    },
    {
      "inputs": [],
      "name": "symbol",
      "outputs": [
        {
          "internalType": "string",
          "name": "",
          "type": "string"
        }
      ],
      "stateMutability": "view",
      "type": "function"
    },
    {
      "inputs": [
        {
          "internalType": "uint256",
          "name": "tokenId",
          "type": "uint256"
        }
      ],
      "name": "tokenAttributes",
      "outputs": [
        {
          "internalType": "string",
          "name": "",
          "type": "string"
        }
      ],
      "stateMutability": "view",
      "type": "function"
    },
    {
      "inputs": [
        {
          "internalType": "uint256",
          "name": "index",
          "type": "uint256"
        }
      ],
      "name": "tokenByIndex",
      "outputs": [
        {
          "internalType": "uint256",
          "name": "",
          "type": "uint256"
        }
      ],
      "stateMutability": "view",
      "type": "function"
    },
    {
      "inputs": [
        {
          "internalType": "uint256",
          "name": "tokenId",
          "type": "uint256"
        }
      ],
      "name": "tokenImage",
      "outputs": [
        {
          "internalType": "string",
          "name": "",
          "type": "string"
        }
      ],
      "stateMutability": "view",
      "type": "function"
    },
    {
      "inputs": [
        {
          "internalType": "address",
          "name": "owner",
          "type": "address"
        },
        {
          "internalType": "uint256",
          "name": "index",
          "type": "uint256"
        }
      ],
      "name": "tokenOfOwnerByIndex",
      "outputs": [
        {
          "internalType": "uint256",
          "name": "",
          "type": "uint256"
        }
      ],
      "stateMutability": "view",
      "type": "function"
    },
    {
      "inputs": [
        {
          "internalType": "uint256",
          "name": "tokenId",
          "type": "uint256"
        }
      ],
      "name": "tokenOffchainImage",
      "outputs": [
        {
          "internalType": "string",
          "name": "",
          "type": "string"
        }
      ],
      "stateMutability": "view",
      "type": "function"
    },
    {
      "inputs": [
        {
          "internalType": "uint256",
          "name": "tokenId",
          "type": "uint256"
        }
      ],
      "name": "tokenSvgImage",
      "outputs": [
        {
          "internalType": "string",
          "name": "",
          "type": "string"
        }
      ],
      "stateMutability": "view",
      "type": "function"
    },
    {
      "inputs": [
        {
          "internalType": "uint256",
          "name": "tokenId",
          "type": "uint256"
        }
      ],
      "name": "tokenSvgOverride",
      "outputs": [
        {
          "internalType": "bool",
          "name": "",
          "type": "bool"
        }
      ],
      "stateMutability": "view",
      "type": "function"
    },
    {
      "inputs": [
        {
          "internalType": "uint256",
          "name": "tokenId",
          "type": "uint256"
        }
      ],
      "name": "tokenURI",
      "outputs": [
        {
          "internalType": "string",
          "name": "",
          "type": "string"
        }
      ],
      "stateMutability": "view",
      "type": "function"
    },
    {
      "inputs": [],
      "name": "totalSupply",
      "outputs": [
        {
          "internalType": "uint256",
          "name": "",
          "type": "uint256"
        }
      ],
      "stateMutability": "view",
      "type": "function"
    },
    {
      "inputs": [
        {
          "internalType": "address",
          "name": "from",
          "type": "address"
        },
        {
          "internalType": "address",
          "name": "to",
          "type": "address"
        },
        {
          "internalType": "uint256",
          "name": "tokenId",
          "type": "uint256"
        }
      ],
      "name": "transferFrom",
      "outputs": [],
      "stateMutability": "nonpayable",
      "type": "function"
    },
    {
      "inputs": [
        {
          "internalType": "address",
          "name": "newOwner",
          "type": "address"
        }
      ],
      "name": "transferOwnership",
      "outputs": [],
      "stateMutability": "nonpayable",
      "type": "function"
    },
    {
      "stateMutability": "payable",
      "type": "receive"
    }
  ],
  "bytecode": {
    "object": "0x60c06040523480156200001157600080fd5b506040516200369c3803806200369c833981016040819052620000349162000145565b6040518060400160405280600581526020016423b2b936bd60d91b8152506040518060400160405280600581526020016423a2a926ad60d91b8152508160009081620000819190620002da565b506001620000908282620002da565b505050620000ad620000a7620000d960201b60201c565b620000dd565b620000b884620000dd565b600b620000c68482620002da565b5060809190915260a05250620003a69050565b3390565b600a80546001600160a01b038381166001600160a01b0319831681179093556040519116919082907f8be0079c531659141344cd1fd0a4f28419497f9722a3daafe3b4186f6b6457e090600090a35050565b634e487b7160e01b600052604160045260246000fd5b600080600080608085870312156200015c57600080fd5b84516001600160a01b03811681146200017457600080fd5b602086810151919550906001600160401b03808211156200019457600080fd5b818801915088601f830112620001a957600080fd5b815181811115620001be57620001be6200012f565b604051601f8201601f19908116603f01168101908382118183101715620001e957620001e96200012f565b816040528281528b868487010111156200020257600080fd5b600093505b8284101562000226578484018601518185018701529285019262000207565b6000928101909501919091525050506040860151606090960151949790965092505050565b600181811c908216806200026057607f821691505b6020821081036200028157634e487b7160e01b600052602260045260246000fd5b50919050565b601f821115620002d557600081815260208120601f850160051c81016020861015620002b05750805b601f850160051c820191505b81811015620002d157828155600101620002bc565b5050505b505050565b81516001600160401b03811115620002f657620002f66200012f565b6200030e816200030784546200024b565b8462000287565b602080601f8311600181146200034657600084156200032d5750858301515b600019600386901b1c1916600185901b178555620002d1565b600085815260208120601f198616915b82811015620003775788860151825594840194600190910190840162000356565b5085821015620003965787850151600019600388901b60f8161c191681555b5050505050600190811b01905550565b60805160a0516132c2620003da600039600081816105750152610b220152600081816103d20152610b4e01526132c26000f3fe6080604052600436106101e75760003560e01c8063715018a611610102578063c87b56dd11610095578063e985e9c511610064578063e985e9c514610599578063efbd97a4146105e2578063f2824b5314610602578063f2fde38b1461062257600080fd5b8063c87b56dd14610506578063cf26e0a714610526578063cf34842514610546578063d5abeb011461056657600080fd5b806395d89b41116100d157806395d89b411461049157806399d61b24146104a6578063a22cb465146104c6578063b88d4fde146104e657600080fd5b8063715018a614610429578063889e81591461043e5780638a2620d71461045e5780638da5cb5b1461047357600080fd5b806342842e0e1161017a5780636352211e116101495780636352211e146103a35780636817c76c146103c35780636a627842146103f657806370a082311461040957600080fd5b806342842e0e146103235780634d8dcbd1146103435780634f558e79146103635780634f6ccce71461038357600080fd5b8063169f058a116101b6578063169f058a146102a457806318160ddd146102c457806323b872dd146102e35780632f745c591461030357600080fd5b806301ffc9a7146101f357806306fdde0314610228578063081812fc1461024a578063095ea7b31461028257600080fd5b366101ee57005b600080fd5b3480156101ff57600080fd5b5061021361020e3660046122a1565b610642565b60405190151581526020015b60405180910390f35b34801561023457600080fd5b5061023d61066d565b60405161021f919061230e565b34801561025657600080fd5b5061026a610265366004612321565b6106ff565b6040516001600160a01b03909116815260200161021f565b34801561028e57600080fd5b506102a261029d366004612351565b610726565b005b3480156102b057600080fd5b506102a26102bf36600461238b565b610840565b3480156102d057600080fd5b506008545b60405190815260200161021f565b3480156102ef57600080fd5b506102a26102fe3660046123b7565b6108ce565b34801561030f57600080fd5b506102d561031e366004612351565b6108ff565b34801561032f57600080fd5b506102a261033e3660046123b7565b610995565b34801561034f57600080fd5b506102a261035e36600461247f565b6109b0565b34801561036f57600080fd5b5061021361037e366004612321565b610a01565b34801561038f57600080fd5b506102d561039e366004612321565b610a20565b3480156103af57600080fd5b5061026a6103be366004612321565b610ab3565b3480156103cf57600080fd5b507f00000000000000000000000000000000000000000000000000000000000000006102d5565b6102d56104043660046124c8565b610b13565b34801561041557600080fd5b506102d56104243660046124c8565b610b88565b34801561043557600080fd5b506102a2610c0e565b34801561044a57600080fd5b5061023d610459366004612321565b610c22565b34801561046a57600080fd5b5061023d610c36565b34801561047f57600080fd5b50600a546001600160a01b031661026a565b34801561049d57600080fd5b5061023d610c45565b3480156104b257600080fd5b5061023d6104c1366004612321565b610c54565b3480156104d257600080fd5b506102a26104e13660046124e3565b610c80565b3480156104f257600080fd5b506102a261050136600461250d565b610c8f565b34801561051257600080fd5b5061023d610521366004612321565b610cc7565b34801561053257600080fd5b50610213610541366004612321565b610d9c565b34801561055257600080fd5b5061023d610561366004612321565b610dbd565b34801561057257600080fd5b507f00000000000000000000000000000000000000000000000000000000000000006102d5565b3480156105a557600080fd5b506102136105b4366004612589565b6001600160a01b03918216600090815260056020908152604080832093909416825291909152205460ff1690565b3480156105ee57600080fd5b506102136105fd366004612321565b610de3565b34801561060e57600080fd5b5061023d61061d366004612321565b610df7565b34801561062e57600080fd5b506102a261063d3660046124c8565b610e26565b60006001600160e01b0319821663780e9d6360e01b1480610667575061066782610e9f565b92915050565b60606000805461067c906125b3565b80601f01602080910402602001604051908101604052809291908181526020018280546106a8906125b3565b80156106f55780601f106106ca576101008083540402835291602001916106f5565b820191906000526020600020905b8154815290600101906020018083116106d857829003601f168201915b5050505050905090565b600061070a82610eef565b506000908152600460205260409020546001600160a01b031690565b600061073182610ab3565b9050806001600160a01b0316836001600160a01b0316036107a35760405162461bcd60e51b815260206004820152602160248201527f4552433732313a20617070726f76616c20746f2063757272656e74206f776e656044820152603960f91b60648201526084015b60405180910390fd5b336001600160a01b03821614806107bf57506107bf81336105b4565b6108315760405162461bcd60e51b815260206004820152603d60248201527f4552433732313a20617070726f76652063616c6c6572206973206e6f7420746f60448201527f6b656e206f776e6572206f7220617070726f76656420666f7220616c6c000000606482015260840161079a565b61083b8383610f4e565b505050565b6000828152600260205260409020546001600160a01b0316331461086357600080fd5b6000828152600c60205260409020805460ff19168215151790557ffc2ed733b51fc876d4d685c380b774334e11cdbc8b5cc7f2e4941bde2b7ee64281833360408051931515845260208401929092526001600160a01b03169082015260600160405180910390a15050565b6108d83382610fbc565b6108f45760405162461bcd60e51b815260040161079a906125ed565b61083b83838361103b565b600061090a83610b88565b821061096c5760405162461bcd60e51b815260206004820152602b60248201527f455243373231456e756d657261626c653a206f776e657220696e646578206f7560448201526a74206f6620626f756e647360a81b606482015260840161079a565b506001600160a01b03919091166000908152600660209081526040808320938352929052205490565b61083b83838360405180602001604052806000815250610c8f565b6109b86111ac565b600b6109c48282612688565b507f45d9f4f1d149ee1540366a2ad8150dc67fd04c36881d743902a4eabb1674185c81336040516109f6929190612748565b60405180910390a150565b6000818152600260205260408120546001600160a01b03161515610667565b6000610a2b60085490565b8210610a8e5760405162461bcd60e51b815260206004820152602c60248201527f455243373231456e756d657261626c653a20676c6f62616c20696e646578206f60448201526b7574206f6620626f756e647360a01b606482015260840161079a565b60088281548110610aa157610aa1612772565b90600052602060002001549050919050565b6000818152600260205260408120546001600160a01b0316806106675760405162461bcd60e51b8152602060048201526018602482015277115490cdcc8c4e881a5b9d985b1a59081d1bdad95b88125160421b604482015260640161079a565b6000610b1e60085490565b90507f00000000000000000000000000000000000000000000000000000000000000008110610b4c57600080fd5b7f0000000000000000000000000000000000000000000000000000000000000000341015610b7957600080fd5b610b838282611206565b919050565b60006001600160a01b038216610bf25760405162461bcd60e51b815260206004820152602960248201527f4552433732313a2061646472657373207a65726f206973206e6f7420612076616044820152683634b21037bbb732b960b91b606482015260840161079a565b506001600160a01b031660009081526003602052604090205490565b610c166111ac565b610c206000611220565b565b6060610c2d82610eef565b61066782611272565b6060600b805461067c906125b3565b60606001805461067c906125b3565b6060610c5f82610eef565b6000610c6a836112a6565b9050610c7981600001516116e6565b9392505050565b610c8b33838361170b565b5050565b610c993383610fbc565b610cb55760405162461bcd60e51b815260040161079a906125ed565b610cc1848484846117d9565b50505050565b6060610cd282610eef565b6000610cdd836112a6565b90506000610cef84836000015161180c565b9050610cfa84611835565b15610d2a57610d0881611873565b604051602001610d1891906127a4565b60405160208183030381529060405290505b610d74610d36856119c6565b82610d4e856020015186604001518760600151611a59565b604051602001610d60939291906127e9565b604051602081830303815290604052611873565b604051602001610d8491906128b0565b60405160208183030381529060405292505050919050565b6000610da782610eef565b506000908152600c602052604090205460ff1690565b6060610dc882610eef565b6000610dd3836112a6565b9050610c7983826000015161180c565b6000610dee82610eef565b61066782611835565b6060610e0282610eef565b6000610e0d836112a6565b9050610c79816020015182604001518360600151611a59565b610e2e6111ac565b6001600160a01b038116610e935760405162461bcd60e51b815260206004820152602660248201527f4f776e61626c653a206e6577206f776e657220697320746865207a65726f206160448201526564647265737360d01b606482015260840161079a565b610e9c81611220565b50565b60006001600160e01b031982166380ac58cd60e01b1480610ed057506001600160e01b03198216635b5e139f60e01b145b8061066757506301ffc9a760e01b6001600160e01b0319831614610667565b6000818152600260205260409020546001600160a01b0316610e9c5760405162461bcd60e51b8152602060048201526018602482015277115490cdcc8c4e881a5b9d985b1a59081d1bdad95b88125160421b604482015260640161079a565b600081815260046020526040902080546001600160a01b0319166001600160a01b0384169081179091558190610f8382610ab3565b6001600160a01b03167f8c5be1e5ebec7d5bd14f71427d1e84f3dd0314c0f7b2291e5b200ac8c7c3b92560405160405180910390a45050565b600080610fc883610ab3565b9050806001600160a01b0316846001600160a01b0316148061100f57506001600160a01b0380821660009081526005602090815260408083209388168352929052205460ff165b806110335750836001600160a01b0316611028846106ff565b6001600160a01b0316145b949350505050565b826001600160a01b031661104e82610ab3565b6001600160a01b0316146110745760405162461bcd60e51b815260040161079a906128f5565b6001600160a01b0382166110d65760405162461bcd60e51b8152602060048201526024808201527f4552433732313a207472616e7366657220746f20746865207a65726f206164646044820152637265737360e01b606482015260840161079a565b6110e38383836001611aad565b826001600160a01b03166110f682610ab3565b6001600160a01b03161461111c5760405162461bcd60e51b815260040161079a906128f5565b600081815260046020908152604080832080546001600160a01b03199081169091556001600160a01b0387811680865260038552838620805460001901905590871680865283862080546001019055868652600290945282852080549092168417909155905184937fddf252ad1be2c89b69c2b068fc378daa952ba7f163c4a11628f55a4df523b3ef91a4505050565b600a546001600160a01b03163314610c205760405162461bcd60e51b815260206004820181905260248201527f4f776e61626c653a2063616c6c6572206973206e6f7420746865206f776e6572604482015260640161079a565b610c8b828260405180602001604052806000815250611be1565b600a80546001600160a01b038381166001600160a01b0319831681179093556040519116919082907f8be0079c531659141344cd1fd0a4f28419497f9722a3daafe3b4186f6b6457e090600090a35050565b6060600b61127f836119c6565b60405160200161129092919061293a565b6040516020818303038152906040529050919050565b6112d16040518060800160405280606081526020016060815260200160608152602001606081525090565b81600003611335576040805161010081019091526052608082018181528291612f9260a08401398152604080516020818101835260008083528185019290925282518082018452828152838501528251908101909252815260609091015292915050565b8160010361139957604080516101008101909152604660808201818152829161324760a08401398152604080516020818101835260008083528185019290925282518082018452828152838501528251908101909252815260609091015292915050565b816002036113fd57604080516101008101909152604f6080820181815282916130f260a08401398152604080516020818101835260008083528185019290925282518082018452828152838501528251908101909252815260609091015292915050565b8160030361146157604080516101208101909152606160808201818152829161309160a08401398152604080516020818101835260008083528185019290925282518082018452828152838501528251908101909252815260609091015292915050565b816004036114c5576040805161010081019091526052608082018181528291612f4060a08401398152604080516020818101835260008083528185019290925282518082018452828152838501528251908101909252815260609091015292915050565b8160050361152957604080516101008101909152605e60808201818152829161303360a08401398152604080516020818101835260008083528185019290925282518082018452828152838501528251908101909252815260609091015292915050565b8160060361158d57604080516101008101909152604360808201818152829161320460a08401398152604080516020818101835260008083528185019290925282518082018452828152838501528251908101909252815260609091015292915050565b816007036115f157604080516101008101909152604f608082018181528291612fe460a08401398152604080516020818101835260008083528185019290925282518082018452828152838501528251908101909252815260609091015292915050565b816008036116555760408051610100810190915260586080820181815282916131ac60a08401398152604080516020818101835260008083528185019290925282518082018452828152838501528251908101909252815260609091015292915050565b6040805160e08101909152602b60808201818152829161314160a084013981526020016040518060400160405280600581526020016422a92927a960d91b81525081526020016040518060400160405280600581526020016422a92927a960d91b81525081526020016040518060400160405280600581526020016422a92927a960d91b8152508152509050919050565b60606116f182611c14565b6116fa83611c39565b6040516020016112909291906129c1565b816001600160a01b0316836001600160a01b03160361176c5760405162461bcd60e51b815260206004820152601960248201527f4552433732313a20617070726f766520746f2063616c6c657200000000000000604482015260640161079a565b6001600160a01b03838116600081815260056020908152604080832094871680845294825291829020805460ff191686151590811790915591519182527f17307eab39ab6107e8899845ad3d59bd9653f200f220920489ca2b5937696c31910160405180910390a3505050565b6117e484848461103b565b6117f084848484611d61565b610cc15760405162461bcd60e51b815260040161079a90612bb0565b606061181783611835565b1561182c57611825826116e6565b9050610667565b610c7983611272565b6000818152600c602052604081205460ff168061185e5750600b805461185a906125b3565b1590505b1561186b57506001919050565b506000919050565b6060815160000361189257505060408051602081019091526000815290565b600060405180606001604052806040815260200161316c60409139905060006003845160026118c19190612c18565b6118cb9190612c41565b6118d6906004612c55565b67ffffffffffffffff8111156118ee576118ee6123f3565b6040519080825280601f01601f191660200182016040528015611918576020820181803683370190505b509050600182016020820185865187015b80821015611984576003820191508151603f8160121c168501518453600184019350603f81600c1c168501518453600184019350603f8160061c168501518453600184019350603f8116850151845350600183019250611929565b50506003865106600181146119a057600281146119b3576119bb565b603d6001830353603d60028303536119bb565b603d60018303535b509195945050505050565b606060006119d383611e62565b600101905060008167ffffffffffffffff8111156119f3576119f36123f3565b6040519080825280601f01601f191660200182016040528015611a1d576020820181803683370190505b5090508181016020015b600019016f181899199a1a9b1b9c1cb0b131b232b360811b600a86061a8153600a8504945084611a2757509392505050565b60606000848484604051602001611a7293929190612c6c565b604051602081830303815290604052905080604051602001611a949190612d64565b6040516020818303038152906040529150509392505050565b6001811115611b1c5760405162461bcd60e51b815260206004820152603560248201527f455243373231456e756d657261626c653a20636f6e7365637574697665207472604482015274185b9cd9995c9cc81b9bdd081cdd5c1c1bdc9d1959605a1b606482015260840161079a565b816001600160a01b038516611b7857611b7381600880546000838152600960205260408120829055600182018355919091527ff3f7a9fe364faab93b216da50a3214154f22a0a2b415b23a84c8169e8b636ee30155565b611b9b565b836001600160a01b0316856001600160a01b031614611b9b57611b9b8582611f3a565b6001600160a01b038416611bb757611bb281611fd7565b611bda565b846001600160a01b0316846001600160a01b031614611bda57611bda8482612086565b5050505050565b611beb83836120ca565b611bf86000848484611d61565b61083b5760405162461bcd60e51b815260040161079a90612bb0565b606061066782600081518110611c2c57611c2c612772565b016020015160f81c6119c6565b60606000600360018451611c4d9190612d98565b611c579190612c41565b905060005b81811015611d5a576000611c71826003612c55565b611c7c906001612c18565b90506000858281518110611c9257611c92612772565b016020015160f81c9050600080611cd288611cae866001612c18565b81518110611cbe57611cbe612772565b01602001516001600160f81b031916612263565b9092509050600080611ce98a611cae886002612c18565b9150915088611cf7866119c6565b611d00866119c6565b611d09866119c6565b611d12866119c6565b611d1b866119c6565b604051602001611d3096959493929190612dab565b60405160208183030381529060405298505050505050508080611d5290612ea2565b915050611c5c565b5050919050565b60006001600160a01b0384163b15611e5757604051630a85bd0160e11b81526001600160a01b0385169063150b7a0290611da5903390899088908890600401612ebb565b6020604051808303816000875af1925050508015611de0575060408051601f3d908101601f19168201909252611ddd91810190612ef8565b60015b611e3d573d808015611e0e576040519150601f19603f3d011682016040523d82523d6000602084013e611e13565b606091505b508051600003611e355760405162461bcd60e51b815260040161079a90612bb0565b805181602001fd5b6001600160e01b031916630a85bd0160e11b149050611033565b506001949350505050565b60008072184f03e93ff9f4daa797ed6e38ed64bf6a1f0160401b8310611ea15772184f03e93ff9f4daa797ed6e38ed64bf6a1f0160401b830492506040015b6d04ee2d6d415b85acef81000000008310611ecd576d04ee2d6d415b85acef8100000000830492506020015b662386f26fc100008310611eeb57662386f26fc10000830492506010015b6305f5e1008310611f03576305f5e100830492506008015b6127108310611f1757612710830492506004015b60648310611f29576064830492506002015b600a83106106675760010192915050565b60006001611f4784610b88565b611f519190612d98565b600083815260076020526040902054909150808214611fa4576001600160a01b03841660009081526006602090815260408083208584528252808320548484528184208190558352600790915290208190555b5060009182526007602090815260408084208490556001600160a01b039094168352600681528383209183525290812055565b600854600090611fe990600190612d98565b6000838152600960205260408120546008805493945090928490811061201157612011612772565b90600052602060002001549050806008838154811061203257612032612772565b600091825260208083209091019290925582815260099091526040808220849055858252812055600880548061206a5761206a612f15565b6001900381819060005260206000200160009055905550505050565b600061209183610b88565b6001600160a01b039093166000908152600660209081526040808320868452825280832085905593825260079052919091209190915550565b6001600160a01b0382166121205760405162461bcd60e51b815260206004820181905260248201527f4552433732313a206d696e7420746f20746865207a65726f2061646472657373604482015260640161079a565b6000818152600260205260409020546001600160a01b0316156121855760405162461bcd60e51b815260206004820152601c60248201527f4552433732313a20746f6b656e20616c7265616479206d696e74656400000000604482015260640161079a565b612193600083836001611aad565b6000818152600260205260409020546001600160a01b0316156121f85760405162461bcd60e51b815260206004820152601c60248201527f4552433732313a20746f6b656e20616c7265616479206d696e74656400000000604482015260640161079a565b6001600160a01b038216600081815260036020908152604080832080546001019055848352600290915280822080546001600160a01b0319168417905551839291907fddf252ad1be2c89b69c2b068fc378daa952ba7f163c4a11628f55a4df523b3ef908290a45050565b60008060f883901c612276601082612f2b565b612281601083612c41565b9250925050915091565b6001600160e01b031981168114610e9c57600080fd5b6000602082840312156122b357600080fd5b8135610c798161228b565b60005b838110156122d95781810151838201526020016122c1565b50506000910152565b600081518084526122fa8160208601602086016122be565b601f01601f19169290920160200192915050565b602081526000610c7960208301846122e2565b60006020828403121561233357600080fd5b5035919050565b80356001600160a01b0381168114610b8357600080fd5b6000806040838503121561236457600080fd5b61236d8361233a565b946020939093013593505050565b80358015158114610b8357600080fd5b6000806040838503121561239e57600080fd5b823591506123ae6020840161237b565b90509250929050565b6000806000606084860312156123cc57600080fd5b6123d58461233a565b92506123e36020850161233a565b9150604084013590509250925092565b634e487b7160e01b600052604160045260246000fd5b600067ffffffffffffffff80841115612424576124246123f3565b604051601f8501601f19908116603f0116810190828211818310171561244c5761244c6123f3565b8160405280935085815286868601111561246557600080fd5b858560208301376000602087830101525050509392505050565b60006020828403121561249157600080fd5b813567ffffffffffffffff8111156124a857600080fd5b8201601f810184136124b957600080fd5b61103384823560208401612409565b6000602082840312156124da57600080fd5b610c798261233a565b600080604083850312156124f657600080fd5b6124ff8361233a565b91506123ae6020840161237b565b6000806000806080858703121561252357600080fd5b61252c8561233a565b935061253a6020860161233a565b925060408501359150606085013567ffffffffffffffff81111561255d57600080fd5b8501601f8101871361256e57600080fd5b61257d87823560208401612409565b91505092959194509250565b6000806040838503121561259c57600080fd5b6125a58361233a565b91506123ae6020840161233a565b600181811c908216806125c757607f821691505b6020821081036125e757634e487b7160e01b600052602260045260246000fd5b50919050565b6020808252602d908201527f4552433732313a2063616c6c6572206973206e6f7420746f6b656e206f776e6560408201526c1c881bdc88185c1c1c9bdd9959609a1b606082015260800190565b601f82111561083b57600081815260208120601f850160051c810160208610156126615750805b601f850160051c820191505b818110156126805782815560010161266d565b505050505050565b815167ffffffffffffffff8111156126a2576126a26123f3565b6126b6816126b084546125b3565b8461263a565b602080601f8311600181146126eb57600084156126d35750858301515b600019600386901b1c1916600185901b178555612680565b600085815260208120601f198616915b8281101561271a578886015182559484019460019091019084016126fb565b50858210156127385787850151600019600388901b60f8161c191681555b5050505050600190811b01905550565b60408152600061275b60408301856122e2565b905060018060a01b03831660208301529392505050565b634e487b7160e01b600052603260045260246000fd5b6000815161279a8185602086016122be565b9290920192915050565b7f646174613a696d6167652f7376672b786d6c3b6261736536342c0000000000008152600082516127dc81601a8501602087016122be565b91909101601a0192915050565b6e7b226e616d65223a224765726d202360881b8152835160009061281481600f8501602089016122be565b7f222c226465736372697074696f6e223a224765726d7a20617265206261736564600f918401918201526a11161134b6b0b3b2911d1160a91b602f820152845161286581603a8401602089016122be565b6e11161130ba3a3934b13aba32b9911d60891b603a929091019182015283516128958160498401602088016122be565b607d60f81b60499290910191820152604a0195945050505050565b7f646174613a6170706c69636174696f6e2f6a736f6e3b6261736536342c0000008152600082516128e881601d8501602087016122be565b91909101601d0192915050565b60208082526025908201527f4552433732313a207472616e736665722066726f6d20696e636f72726563742060408201526437bbb732b960d91b606082015260800190565b6000808454612948816125b3565b600182811680156129605760018114612975576129a4565b60ff19841687528215158302870194506129a4565b8860005260208060002060005b8581101561299b5781548a820152908401908201612982565b50505082870194505b5050505083516129b88183602088016122be565b01949350505050565b7f3c7376672069643d276765726d7a2d7376672720786d6c6e733d27687474703a81527f2f2f7777772e77332e6f72672f323030302f737667272070726573657276654160208201527f7370656374526174696f3d27784d696e594d696e206d6565742720766965774260408201527f6f783d27302030203136203136273e3c7374796c653e236765726d7a2d73766760608201527f7b73686170652d72656e646572696e673a20637269737065646765733b7d2e7760808201527f307b66696c6c3a233030303030307d2e77317b66696c6c3a234646464646467d60a08201527f2e77327b66696c6c3a234646303030307d2e77337b66696c6c3a23303046463060c08201527f307d2e77347b66696c6c3a233030303046467d2e77357b66696c6c3a2330304660e08201527f4646467d2e77367b66696c6c3a234646464630307d2e77377b66696c6c3a23466101008201526d23181823233e9e17b9ba3cb6329f60911b6101208201526d3c7265637420636c6173733d277760901b61012e8201526000611033612b9e612b98612b5e61013c860188612788565b7f2720783d2730302720793d273030272077696474683d273136272068656967688152673a1e93989b13979f60c11b602082015260280190565b85612788565b651e17b9bb339f60d11b815260060190565b60208082526032908201527f4552433732313a207472616e7366657220746f206e6f6e20455243373231526560408201527131b2b4bb32b91034b6b83632b6b2b73a32b960711b606082015260800190565b634e487b7160e01b600052601160045260246000fd5b8082018082111561066757610667612c02565b634e487b7160e01b600052601260045260246000fd5b600082612c5057612c50612c2b565b500490565b808202811582820484141761066757610667612c02565b7f7b2274726169745f74797065223a22436f6f7264696e61746573222c2276616c8152643ab2911d1160d91b602082015260008451612cb28160258501602089016122be565b62089f4b60ea1b60259184019182018190527f7b2274726169745f74797065223a2253706563696573222c2276616c7565223a6028830152601160f91b60488301528551612d07816049850160208a016122be565b60499201918201527f7b2274726169745f74797065223a224e616d65222c2276616c7565223a220000604c8201528351612d4881606a8401602088016122be565b61227d60f01b606a9290910191820152606c0195945050505050565b605b60f81b815260008251612d808160018501602087016122be565b605d60f81b6001939091019283015250600201919050565b8181038181111561066757610667612c02565b60008751612dbd818460208c016122be565b6d3c7265637420636c6173733d277760901b9083019081528751612de881600e840160208c016122be565b642720783d2760d81b600e92909101918201528651612e0e816013840160208b016122be565b642720793d2760d81b601392909101918201528551612e34816018840160208a016122be565b68272077696474683d2760b81b601892909101918201528451612e5e8160218401602089016122be565b6927206865696768743d2760b01b60219290910191820152612e95612e86602b830186612788565b6213979f60e91b815260030190565b9998505050505050505050565b600060018201612eb457612eb4612c02565b5060010190565b6001600160a01b0385811682528416602082015260408101839052608060608201819052600090612eee908301846122e2565b9695505050505050565b600060208284031215612f0a57600080fd5b8151610c798161228b565b634e487b7160e01b600052603160045260246000fd5b600082612f3a57612f3a612c2b565b50069056fe04074211074d1107356607533a079712064411063511064b11063a11062614066d11066211067311067c1106841206961106a51106a712069911068a12068d4106cc1106824106c31106aa1101651201691206032221034311032d21034c1103544802931102a221029c1102ad2102851202953102c611028912029a3102c911029712026421026b21025311023311024412025614024a12023c11025c1101651201691203054458053311053c11023411023b11024516024c4102434102841102931102a22102c31102952102b611028611029712028911029a2102b911028b11029c1102ad2102bd2002cc110165120169120605323c072131072212073411072e31072c12073b11072516075212075c1205654605a624076441076b41078c11077d11079d1107831107721107921107a51107b61107c71207b91107aa1107b42107d51107bb2107da1101651201691202043211043d1104753604a41104b31104ab1104bc11053311053c1105741105851105961105a712059911058a11057b11059b1105ac1105a31105941105a52105c61105aa2105c91104433a054411054b11053516055c2105532101651201691205033411033b1103452603644807461407441107551107641107732107941107a52107c61107921107a121075a11076b11077c21079b1107aa2107c911079614079d1107ae21017512017912074b1107005251009312007312005312005651005a51005711006811007711008821005b11006c11007b11008c214142434445464748494a4b4c4d4e4f505152535455565758595a6162636465666768696a6b6c6d6e6f707172737475767778797a303132333435363738392b2f05043468047c21047321042411042b1104952104b611049a2104b911022311022c11023614023b21025c21027d21027221025321023421029312029611028712029911029b1202ad3102a23102d31102dc110165120169120704434a048516034411033516034b11039712038911038b11035c31035331038411038611039a3103953103c61103c911039c1103ad1103931103a21101651201691203073311073c11074458079411079b1107a31107b22107ac1107bd21043516045331047421045c31047b21049712048611048911049a2104b91104952104b611015512015912a2646970667358221220f7d86745325f80e7d47b0829254cbe040ed00506a9b40a4255f240a2a00c5b5064736f6c63430008150033",
    "linkReferences": {}
  },
  "methodIdentifiers": {
    "approve(address,uint256)": "095ea7b3",
    "balanceOf(address)": "70a08231",
    "exists(uint256)": "4f558e79",
    "getApproved(uint256)": "081812fc",
    "isApprovedForAll(address,address)": "e985e9c5",
    "isTokenImageSvg(uint256)": "efbd97a4",
    "maxSupply()": "d5abeb01",
    "mint(address)": "6a627842",
    "mintPrice()": "6817c76c",
    "name()": "06fdde03",
    "offchainImageBase()": "8a2620d7",
    "owner()": "8da5cb5b",
    "ownerOf(uint256)": "6352211e",
    "renounceOwnership()": "715018a6",
    "safeTransferFrom(address,address,uint256)": "42842e0e",
    "safeTransferFrom(address,address,uint256,bytes)": "b88d4fde",
    "setApprovalForAll(address,bool)": "a22cb465",
    "setOffchainImageBase(string)": "4d8dcbd1",
    "setTokenSvgOverride(uint256,bool)": "169f058a",
    "supportsInterface(bytes4)": "01ffc9a7",
    "symbol()": "95d89b41",
    "tokenAttributes(uint256)": "f2824b53",
    "tokenByIndex(uint256)": "4f6ccce7",
    "tokenImage(uint256)": "cf348425",
    "tokenOfOwnerByIndex(address,uint256)": "2f745c59",
    "tokenOffchainImage(uint256)": "889e8159",
    "tokenSvgImage(uint256)": "99d61b24",
    "tokenSvgOverride(uint256)": "cf26e0a7",
    "tokenURI(uint256)": "c87b56dd",
    "totalSupply()": "18160ddd",
    "transferFrom(address,address,uint256)": "23b872dd",
    "transferOwnership(address)": "f2fde38b"
  },
  "id": 35
}