{
  "abi": [
    {
      "inputs": [
        {
          "internalType": "address",
          "name": "owner",
          "type": "address"
        },
        {
          "internalType": "string",
          "name": "base",
          "type": "string"
        },
        {
          "internalType": "uint256",
          "name": "price",
          "type": "uint256"
        },
        {
          "internalType": "uint256",
          "name": "maxTokenId",
          "type": "uint256"
        }
      ],
      "stateMutability": "nonpayable",
      "type": "constructor"
    },
    {
      "anonymous": false,
      "inputs": [
        {
          "indexed": true,
          "internalType": "address",
          "name": "owner",
          "type": "address"
        },
        {
          "indexed": true,
          "internalType": "address",
          "name": "approved",
          "type": "address"
        },
        {
          "indexed": true,
          "internalType": "uint256",
          "name": "tokenId",
          "type": "uint256"
        }
      ],
      "name": "Approval",
      "type": "event"
    },
    {
      "anonymous": false,
      "inputs": [
        {
          "indexed": true,
          "internalType": "address",
          "name": "owner",
          "type": "address"
        },
        {
          "indexed": true,
          "internalType": "address",
          "name": "operator",
          "type": "address"
        },
        {
          "indexed": false,
          "internalType": "bool",
          "name": "approved",
          "type": "bool"
        }
      ],
      "name": "ApprovalForAll",
      "type": "event"
    },
    {
      "anonymous": false,
      "inputs": [
        {
          "indexed": true,
          "internalType": "address",
          "name": "previousOwner",
          "type": "address"
        },
        {
          "indexed": true,
          "internalType": "address",
          "name": "newOwner",
          "type": "address"
        }
      ],
      "name": "OwnershipTransferred",
      "type": "event"
    },
    {
      "anonymous": false,
      "inputs": [
        {
          "indexed": false,
          "internalType": "string",
          "name": "base",
          "type": "string"
        },
        {
          "indexed": false,
          "internalType": "address",
          "name": "sender",
          "type": "address"
        }
      ],
      "name": "SetOffChainImageBase",
      "type": "event"
    },
    {
      "anonymous": false,
      "inputs": [
        {
          "indexed": true,
          "internalType": "address",
          "name": "from",
          "type": "address"
        },
        {
          "indexed": true,
          "internalType": "address",
          "name": "to",
          "type": "address"
        },
        {
          "indexed": true,
          "internalType": "uint256",
          "name": "tokenId",
          "type": "uint256"
        }
      ],
      "name": "Transfer",
      "type": "event"
    },
    {
      "inputs": [
        {
          "internalType": "address",
          "name": "to",
          "type": "address"
        },
        {
          "internalType": "uint256",
          "name": "tokenId",
          "type": "uint256"
        }
      ],
      "name": "approve",
      "outputs": [],
      "stateMutability": "nonpayable",
      "type": "function"
    },
    {
      "inputs": [
        {
          "internalType": "address",
          "name": "owner",
          "type": "address"
        }
      ],
      "name": "balanceOf",
      "outputs": [
        {
          "internalType": "uint256",
          "name": "",
          "type": "uint256"
        }
      ],
      "stateMutability": "view",
      "type": "function"
    },
    {
      "inputs": [
        {
          "internalType": "uint256",
          "name": "tokenId",
          "type": "uint256"
        }
      ],
      "name": "exists",
      "outputs": [
        {
          "internalType": "bool",
          "name": "",
          "type": "bool"
        }
      ],
      "stateMutability": "view",
      "type": "function"
    },
    {
      "inputs": [
        {
          "internalType": "uint256",
          "name": "tokenId",
          "type": "uint256"
        }
      ],
      "name": "getApproved",
      "outputs": [
        {
          "internalType": "address",
          "name": "",
          "type": "address"
        }
      ],
      "stateMutability": "view",
      "type": "function"
    },
    {
      "inputs": [
        {
          "internalType": "address",
          "name": "owner",
          "type": "address"
        },
        {
          "internalType": "address",
          "name": "operator",
          "type": "address"
        }
      ],
      "name": "isApprovedForAll",
      "outputs": [
        {
          "internalType": "bool",
          "name": "",
          "type": "bool"
        }
      ],
      "stateMutability": "view",
      "type": "function"
    },
    {
      "inputs": [],
      "name": "maxSupply",
      "outputs": [
        {
          "internalType": "uint256",
          "name": "",
          "type": "uint256"
        }
      ],
      "stateMutability": "view",
      "type": "function"
    },
    {
      "inputs": [
        {
          "internalType": "address",
          "name": "receiver",
          "type": "address"
        }
      ],
      "name": "mint",
      "outputs": [
        {
          "internalType": "uint256",
          "name": "tokenId",
          "type": "uint256"
        }
      ],
      "stateMutability": "payable",
      "type": "function"
    },
    {
      "inputs": [],
      "name": "mintPrice",
      "outputs": [
        {
          "internalType": "uint256",
          "name": "",
          "type": "uint256"
        }
      ],
      "stateMutability": "view",
      "type": "function"
    },
    {
      "inputs": [],
      "name": "name",
      "outputs": [
        {
          "internalType": "string",
          "name": "",
          "type": "string"
        }
      ],
      "stateMutability": "view",
      "type": "function"
    },
    {
      "inputs": [],
      "name": "offchainImageBase",
      "outputs": [
        {
          "internalType": "string",
          "name": "",
          "type": "string"
        }
      ],
      "stateMutability": "view",
      "type": "function"
    },
    {
      "inputs": [],
      "name": "owner",
      "outputs": [
        {
          "internalType": "address",
          "name": "",
          "type": "address"
        }
      ],
      "stateMutability": "view",
      "type": "function"
    },
    {
      "inputs": [
        {
          "internalType": "uint256",
          "name": "tokenId",
          "type": "uint256"
        }
      ],
      "name": "ownerOf",
      "outputs": [
        {
          "internalType": "address",
          "name": "",
          "type": "address"
        }
      ],
      "stateMutability": "view",
      "type": "function"
    },
    {
      "inputs": [],
      "name": "renounceOwnership",
      "outputs": [],
      "stateMutability": "nonpayable",
      "type": "function"
    },
    {
      "inputs": [
        {
          "internalType": "address",
          "name": "from",
          "type": "address"
        },
        {
          "internalType": "address",
          "name": "to",
          "type": "address"
        },
        {
          "internalType": "uint256",
          "name": "tokenId",
          "type": "uint256"
        }
      ],
      "name": "safeTransferFrom",
      "outputs": [],
      "stateMutability": "nonpayable",
      "type": "function"
    },
    {
      "inputs": [
        {
          "internalType": "address",
          "name": "from",
          "type": "address"
        },
        {
          "internalType": "address",
          "name": "to",
          "type": "address"
        },
        {
          "internalType": "uint256",
          "name": "tokenId",
          "type": "uint256"
        },
        {
          "internalType": "bytes",
          "name": "data",
          "type": "bytes"
        }
      ],
      "name": "safeTransferFrom",
      "outputs": [],
      "stateMutability": "nonpayable",
      "type": "function"
    },
    {
      "inputs": [
        {
          "internalType": "address",
          "name": "operator",
          "type": "address"
        },
        {
          "internalType": "bool",
          "name": "approved",
          "type": "bool"
        }
      ],
      "name": "setApprovalForAll",
      "outputs": [],
      "stateMutability": "nonpayable",
      "type": "function"
    },
    {
      "inputs": [
        {
          "internalType": "string",
          "name": "base",
          "type": "string"
        }
      ],
      "name": "setOffchainImageBase",
      "outputs": [],
      "stateMutability": "nonpayable",
      "type": "function"
    },
    {
      "inputs": [
        {
          "internalType": "bytes4",
          "name": "interfaceId",
          "type": "bytes4"
        }
      ],
      "name": "supportsInterface",
      "outputs": [
        {
          "internalType": "bool",
          "name": "",
          "type": "bool"
        }
      ],
      "stateMutability": "view",
      "type": "function"
    },
    {
      "inputs": [],
      "name": "symbol",
      "outputs": [
        {
          "internalType": "string",
          "name": "",
          "type": "string"
        }
      ],
      "stateMutability": "view",
      "type": "function"
    },
    {
      "inputs": [
        {
          "internalType": "uint256",
          "name": "tokenId",
          "type": "uint256"
        }
      ],
      "name": "tokenAttributes",
      "outputs": [
        {
          "internalType": "string",
          "name": "",
          "type": "string"
        }
      ],
      "stateMutability": "view",
      "type": "function"
    },
    {
      "inputs": [
        {
          "internalType": "uint256",
          "name": "index",
          "type": "uint256"
        }
      ],
      "name": "tokenByIndex",
      "outputs": [
        {
          "internalType": "uint256",
          "name": "",
          "type": "uint256"
        }
      ],
      "stateMutability": "view",
      "type": "function"
    },
    {
      "inputs": [
        {
          "internalType": "uint256",
          "name": "tokenId",
          "type": "uint256"
        }
      ],
      "name": "tokenImage",
      "outputs": [
        {
          "internalType": "string",
          "name": "",
          "type": "string"
        }
      ],
      "stateMutability": "view",
      "type": "function"
    },
    {
      "inputs": [
        {
          "internalType": "address",
          "name": "owner",
          "type": "address"
        },
        {
          "internalType": "uint256",
          "name": "index",
          "type": "uint256"
        }
      ],
      "name": "tokenOfOwnerByIndex",
      "outputs": [
        {
          "internalType": "uint256",
          "name": "",
          "type": "uint256"
        }
      ],
      "stateMutability": "view",
      "type": "function"
    },
    {
      "inputs": [
        {
          "internalType": "uint256",
          "name": "tokenId",
          "type": "uint256"
        }
      ],
      "name": "tokenOffchainImage",
      "outputs": [
        {
          "internalType": "string",
          "name": "",
          "type": "string"
        }
      ],
      "stateMutability": "view",
      "type": "function"
    },
    {
      "inputs": [
        {
          "internalType": "uint256",
          "name": "tokenId",
          "type": "uint256"
        }
      ],
      "name": "tokenSvgImage",
      "outputs": [
        {
          "internalType": "string",
          "name": "",
          "type": "string"
        }
      ],
      "stateMutability": "view",
      "type": "function"
    },
    {
      "inputs": [
        {
          "internalType": "uint256",
          "name": "tokenId",
          "type": "uint256"
        }
      ],
      "name": "tokenURI",
      "outputs": [
        {
          "internalType": "string",
          "name": "",
          "type": "string"
        }
      ],
      "stateMutability": "view",
      "type": "function"
    },
    {
      "inputs": [],
      "name": "totalSupply",
      "outputs": [
        {
          "internalType": "uint256",
          "name": "",
          "type": "uint256"
        }
      ],
      "stateMutability": "view",
      "type": "function"
    },
    {
      "inputs": [
        {
          "internalType": "address",
          "name": "from",
          "type": "address"
        },
        {
          "internalType": "address",
          "name": "to",
          "type": "address"
        },
        {
          "internalType": "uint256",
          "name": "tokenId",
          "type": "uint256"
        }
      ],
      "name": "transferFrom",
      "outputs": [],
      "stateMutability": "nonpayable",
      "type": "function"
    },
    {
      "inputs": [
        {
          "internalType": "address",
          "name": "newOwner",
          "type": "address"
        }
      ],
      "name": "transferOwnership",
      "outputs": [],
      "stateMutability": "nonpayable",
      "type": "function"
    },
    {
      "stateMutability": "payable",
      "type": "receive"
    }
  ],
  "bytecode": {
    "object": "0x60c06040523480156200001157600080fd5b506040516200373438038062003734833981016040819052620000349162000145565b6040518060400160405280600581526020016423b2b936bd60d91b8152506040518060400160405280600581526020016423a2a926ad60d91b8152508160009081620000819190620002da565b506001620000908282620002da565b505050620000ad620000a7620000d960201b60201c565b620000dd565b620000b884620000dd565b600b620000c68482620002da565b5060809190915260a05250620003a69050565b3390565b600a80546001600160a01b038381166001600160a01b0319831681179093556040519116919082907f8be0079c531659141344cd1fd0a4f28419497f9722a3daafe3b4186f6b6457e090600090a35050565b634e487b7160e01b600052604160045260246000fd5b600080600080608085870312156200015c57600080fd5b84516001600160a01b03811681146200017457600080fd5b602086810151919550906001600160401b03808211156200019457600080fd5b818801915088601f830112620001a957600080fd5b815181811115620001be57620001be6200012f565b604051601f8201601f19908116603f01168101908382118183101715620001e957620001e96200012f565b816040528281528b868487010111156200020257600080fd5b600093505b8284101562000226578484018601518185018701529285019262000207565b6000928101909501919091525050506040860151606090960151949790965092505050565b600181811c908216806200026057607f821691505b6020821081036200028157634e487b7160e01b600052602260045260246000fd5b50919050565b601f821115620002d557600081815260208120601f850160051c81016020861015620002b05750805b601f850160051c820191505b81811015620002d157828155600101620002bc565b5050505b505050565b81516001600160401b03811115620002f657620002f66200012f565b6200030e816200030784546200024b565b8462000287565b602080601f8311600181146200034657600084156200032d5750858301515b600019600386901b1c1916600185901b178555620002d1565b600085815260208120601f198616915b82811015620003775788860151825594840194600190910190840162000356565b5085821015620003965787850151600019600388901b60f8161c191681555b5050505050600190811b01905550565b60805160a05161335a620003da600039600081816105140152610a130152600081816103910152610a3f015261335a6000f3fe6080604052600436106101c65760003560e01c806370a08231116100f7578063a22cb46511610095578063d5abeb0111610064578063d5abeb0114610505578063e985e9c514610538578063f2824b5314610581578063f2fde38b146105a157600080fd5b8063a22cb46514610485578063b88d4fde146104a5578063c87b56dd146104c5578063cf348425146104e557600080fd5b80638a2620d7116100d15780638a2620d71461041d5780638da5cb5b1461043257806395d89b411461045057806399d61b241461046557600080fd5b806370a08231146103c8578063715018a6146103e8578063889e8159146103fd57600080fd5b806342842e0e116101645780634f6ccce71161013e5780634f6ccce7146103425780636352211e146103625780636817c76c146103825780636a627842146103b557600080fd5b806342842e0e146102e25780634d8dcbd1146103025780634f558e791461032257600080fd5b8063095ea7b3116101a0578063095ea7b31461026157806318160ddd1461028357806323b872dd146102a25780632f745c59146102c257600080fd5b806301ffc9a7146101d257806306fdde0314610207578063081812fc1461022957600080fd5b366101cd57005b600080fd5b3480156101de57600080fd5b506101f26101ed36600461226d565b6105c1565b60405190151581526020015b60405180910390f35b34801561021357600080fd5b5061021c6105ec565b6040516101fe91906122da565b34801561023557600080fd5b506102496102443660046122ed565b61067e565b6040516001600160a01b0390911681526020016101fe565b34801561026d57600080fd5b5061028161027c36600461231d565b6106a5565b005b34801561028f57600080fd5b506008545b6040519081526020016101fe565b3480156102ae57600080fd5b506102816102bd366004612347565b6107bf565b3480156102ce57600080fd5b506102946102dd36600461231d565b6107f0565b3480156102ee57600080fd5b506102816102fd366004612347565b610886565b34801561030e57600080fd5b5061028161031d36600461240f565b6108a1565b34801561032e57600080fd5b506101f261033d3660046122ed565b6108f2565b34801561034e57600080fd5b5061029461035d3660046122ed565b610911565b34801561036e57600080fd5b5061024961037d3660046122ed565b6109a4565b34801561038e57600080fd5b507f0000000000000000000000000000000000000000000000000000000000000000610294565b6102946103c3366004612458565b610a04565b3480156103d457600080fd5b506102946103e3366004612458565b610a79565b3480156103f457600080fd5b50610281610aff565b34801561040957600080fd5b5061021c6104183660046122ed565b610b13565b34801561042957600080fd5b5061021c610b27565b34801561043e57600080fd5b50600a546001600160a01b0316610249565b34801561045c57600080fd5b5061021c610b36565b34801561047157600080fd5b5061021c6104803660046122ed565b610b45565b34801561049157600080fd5b506102816104a0366004612473565b610b71565b3480156104b157600080fd5b506102816104c03660046124af565b610b80565b3480156104d157600080fd5b5061021c6104e03660046122ed565b610bb8565b3480156104f157600080fd5b5061021c6105003660046122ed565b610c8c565b34801561051157600080fd5b507f0000000000000000000000000000000000000000000000000000000000000000610294565b34801561054457600080fd5b506101f261055336600461252b565b6001600160a01b03918216600090815260056020908152604080832093909416825291909152205460ff1690565b34801561058d57600080fd5b5061021c61059c3660046122ed565b610cb2565b3480156105ad57600080fd5b506102816105bc366004612458565b610ce1565b60006001600160e01b0319821663780e9d6360e01b14806105e657506105e682610d5a565b92915050565b6060600080546105fb9061255e565b80601f01602080910402602001604051908101604052809291908181526020018280546106279061255e565b80156106745780601f1061064957610100808354040283529160200191610674565b820191906000526020600020905b81548152906001019060200180831161065757829003601f168201915b5050505050905090565b600061068982610daa565b506000908152600460205260409020546001600160a01b031690565b60006106b0826109a4565b9050806001600160a01b0316836001600160a01b0316036107225760405162461bcd60e51b815260206004820152602160248201527f4552433732313a20617070726f76616c20746f2063757272656e74206f776e656044820152603960f91b60648201526084015b60405180910390fd5b336001600160a01b038216148061073e575061073e8133610553565b6107b05760405162461bcd60e51b815260206004820152603d60248201527f4552433732313a20617070726f76652063616c6c6572206973206e6f7420746f60448201527f6b656e206f776e6572206f7220617070726f76656420666f7220616c6c0000006064820152608401610719565b6107ba8383610e09565b505050565b6107c93382610e77565b6107e55760405162461bcd60e51b815260040161071990612598565b6107ba838383610ef6565b60006107fb83610a79565b821061085d5760405162461bcd60e51b815260206004820152602b60248201527f455243373231456e756d657261626c653a206f776e657220696e646578206f7560448201526a74206f6620626f756e647360a81b6064820152608401610719565b506001600160a01b03919091166000908152600660209081526040808320938352929052205490565b6107ba83838360405180602001604052806000815250610b80565b6108a9611067565b600b6108b58282612633565b507f45d9f4f1d149ee1540366a2ad8150dc67fd04c36881d743902a4eabb1674185c81336040516108e79291906126f3565b60405180910390a150565b6000818152600260205260408120546001600160a01b031615156105e6565b600061091c60085490565b821061097f5760405162461bcd60e51b815260206004820152602c60248201527f455243373231456e756d657261626c653a20676c6f62616c20696e646578206f60448201526b7574206f6620626f756e647360a01b6064820152608401610719565b600882815481106109925761099261271d565b90600052602060002001549050919050565b6000818152600260205260408120546001600160a01b0316806105e65760405162461bcd60e51b8152602060048201526018602482015277115490cdcc8c4e881a5b9d985b1a59081d1bdad95b88125160421b6044820152606401610719565b6000610a0f60085490565b90507f00000000000000000000000000000000000000000000000000000000000000008110610a3d57600080fd5b7f0000000000000000000000000000000000000000000000000000000000000000341015610a6a57600080fd5b610a7482826110c1565b919050565b60006001600160a01b038216610ae35760405162461bcd60e51b815260206004820152602960248201527f4552433732313a2061646472657373207a65726f206973206e6f7420612076616044820152683634b21037bbb732b960b91b6064820152608401610719565b506001600160a01b031660009081526003602052604090205490565b610b07611067565b610b1160006110db565b565b6060610b1e82610daa565b6105e68261112d565b6060600b80546105fb9061255e565b6060600180546105fb9061255e565b6060610b5082610daa565b6000610b5b83611161565b9050610b6a81600001516116cd565b9392505050565b610b7c3383836116f2565b5050565b610b8a3383610e77565b610ba65760405162461bcd60e51b815260040161071990612598565b610bb2848484846117c0565b50505050565b6060610bc382610daa565b6000610bce83611161565b90506000610be08483600001516117f3565b9050610bea61181b565b15610c1a57610bf88161183f565b604051602001610c08919061274f565b60405160208183030381529060405290505b610c64610c2685611992565b82610c3e856020015186604001518760600151611a25565b604051602001610c5093929190612794565b60405160208183030381529060405261183f565b604051602001610c74919061285b565b60405160208183030381529060405292505050919050565b6060610c9782610daa565b6000610ca283611161565b9050610b6a8382600001516117f3565b6060610cbd82610daa565b6000610cc883611161565b9050610b6a816020015182604001518360600151611a25565b610ce9611067565b6001600160a01b038116610d4e5760405162461bcd60e51b815260206004820152602660248201527f4f776e61626c653a206e6577206f776e657220697320746865207a65726f206160448201526564647265737360d01b6064820152608401610719565b610d57816110db565b50565b60006001600160e01b031982166380ac58cd60e01b1480610d8b57506001600160e01b03198216635b5e139f60e01b145b806105e657506301ffc9a760e01b6001600160e01b03198316146105e6565b6000818152600260205260409020546001600160a01b0316610d575760405162461bcd60e51b8152602060048201526018602482015277115490cdcc8c4e881a5b9d985b1a59081d1bdad95b88125160421b6044820152606401610719565b600081815260046020526040902080546001600160a01b0319166001600160a01b0384169081179091558190610e3e826109a4565b6001600160a01b03167f8c5be1e5ebec7d5bd14f71427d1e84f3dd0314c0f7b2291e5b200ac8c7c3b92560405160405180910390a45050565b600080610e83836109a4565b9050806001600160a01b0316846001600160a01b03161480610eca57506001600160a01b0380821660009081526005602090815260408083209388168352929052205460ff165b80610eee5750836001600160a01b0316610ee38461067e565b6001600160a01b0316145b949350505050565b826001600160a01b0316610f09826109a4565b6001600160a01b031614610f2f5760405162461bcd60e51b8152600401610719906128a0565b6001600160a01b038216610f915760405162461bcd60e51b8152602060048201526024808201527f4552433732313a207472616e7366657220746f20746865207a65726f206164646044820152637265737360e01b6064820152608401610719565b610f9e8383836001611a79565b826001600160a01b0316610fb1826109a4565b6001600160a01b031614610fd75760405162461bcd60e51b8152600401610719906128a0565b600081815260046020908152604080832080546001600160a01b03199081169091556001600160a01b0387811680865260038552838620805460001901905590871680865283862080546001019055868652600290945282852080549092168417909155905184937fddf252ad1be2c89b69c2b068fc378daa952ba7f163c4a11628f55a4df523b3ef91a4505050565b600a546001600160a01b03163314610b115760405162461bcd60e51b815260206004820181905260248201527f4f776e61626c653a2063616c6c6572206973206e6f7420746865206f776e65726044820152606401610719565b610b7c828260405180602001604052806000815250611bad565b600a80546001600160a01b038381166001600160a01b0319831681179093556040519116919082907f8be0079c531659141344cd1fd0a4f28419497f9722a3daafe3b4186f6b6457e090600090a35050565b6060600b61113a83611992565b60405160200161114b9291906128e5565b6040516020818303038152906040529050919050565b61118c6040518060800160405280606081526020016060815260200160608152602001606081525090565b816000036111f0576040805161010081019091526052608082018181528291612f8360a08401398152604080516020818101835260008083528185019290925282518082018452828152838501528251908101909252815260609091015292915050565b816001036112545760408051610100810190915260466080820181815282916132df60a08401398152604080516020818101835260008083528185019290925282518082018452828152838501528251908101909252815260609091015292915050565b816002036112b857604080516101008101909152604f6080820181815282916130e360a08401398152604080516020818101835260008083528185019290925282518082018452828152838501528251908101909252815260609091015292915050565b8160030361131c57604080516101208101909152606160808201818152829161308260a08401398152604080516020818101835260008083528185019290925282518082018452828152838501528251908101909252815260609091015292915050565b81600403611380576040805161010081019091526052608082018181528291612eeb60a08401398152604080516020818101835260008083528185019290925282518082018452828152838501528251908101909252815260609091015292915050565b816005036113e457604080516101008101909152605e60808201818152829161302460a08401398152604080516020818101835260008083528185019290925282518082018452828152838501528251908101909252815260609091015292915050565b8160060361144857604080516101008101909152604360808201818152829161329c60a08401398152604080516020818101835260008083528185019290925282518082018452828152838501528251908101909252815260609091015292915050565b816007036114ac57604080516101008101909152604f608082018181528291612fd560a08401398152604080516020818101835260008083528185019290925282518082018452828152838501528251908101909252815260609091015292915050565b816008036115105760408051610100810190915260586080820181815282916131ec60a08401398152604080516020818101835260008083528185019290925282518082018452828152838501528251908101909252815260609091015292915050565b81600903611574576040805161010081019091526046608082018181528291612f3d60a08401398152604080516020818101835260008083528185019290925282518082018452828152838501528251908101909252815260609091015292915050565b81600a036115d857604080516101008101909152604f60808201818152829161319d60a08401398152604080516020818101835260008083528185019290925282518082018452828152838501528251908101909252815260609091015292915050565b81600b0361163c57604080516101008101909152605860808201818152829161324460a08401398152604080516020818101835260008083528185019290925282518082018452828152838501528251908101909252815260609091015292915050565b6040805160e08101909152602b60808201818152829161313260a084013981526020016040518060400160405280600581526020016422a92927a960d91b81525081526020016040518060400160405280600581526020016422a92927a960d91b81525081526020016040518060400160405280600581526020016422a92927a960d91b8152508152509050919050565b60606116d882611be0565b6116e183611c05565b60405160200161114b92919061296c565b816001600160a01b0316836001600160a01b0316036117535760405162461bcd60e51b815260206004820152601960248201527f4552433732313a20617070726f766520746f2063616c6c6572000000000000006044820152606401610719565b6001600160a01b03838116600081815260056020908152604080832094871680845294825291829020805460ff191686151590811790915591519182527f17307eab39ab6107e8899845ad3d59bd9653f200f220920489ca2b5937696c31910160405180910390a3505050565b6117cb848484610ef6565b6117d784848484611d2d565b610bb25760405162461bcd60e51b815260040161071990612b5b565b60606117fd61181b565b156118125761180b826116cd565b90506105e6565b610b6a8361112d565b6000600b805461182a9061255e565b90506000036118395750600190565b50600090565b6060815160000361185e57505060408051602081019091526000815290565b600060405180606001604052806040815260200161315d604091399050600060038451600261188d9190612bc3565b6118979190612bec565b6118a2906004612c00565b67ffffffffffffffff8111156118ba576118ba612383565b6040519080825280601f01601f1916602001820160405280156118e4576020820181803683370190505b509050600182016020820185865187015b80821015611950576003820191508151603f8160121c168501518453600184019350603f81600c1c168501518453600184019350603f8160061c168501518453600184019350603f81168501518453506001830192506118f5565b505060038651066001811461196c576002811461197f57611987565b603d6001830353603d6002830353611987565b603d60018303535b509195945050505050565b6060600061199f83611e2e565b600101905060008167ffffffffffffffff8111156119bf576119bf612383565b6040519080825280601f01601f1916602001820160405280156119e9576020820181803683370190505b5090508181016020015b600019016f181899199a1a9b1b9c1cb0b131b232b360811b600a86061a8153600a85049450846119f357509392505050565b60606000848484604051602001611a3e93929190612c17565b604051602081830303815290604052905080604051602001611a609190612d0f565b6040516020818303038152906040529150509392505050565b6001811115611ae85760405162461bcd60e51b815260206004820152603560248201527f455243373231456e756d657261626c653a20636f6e7365637574697665207472604482015274185b9cd9995c9cc81b9bdd081cdd5c1c1bdc9d1959605a1b6064820152608401610719565b816001600160a01b038516611b4457611b3f81600880546000838152600960205260408120829055600182018355919091527ff3f7a9fe364faab93b216da50a3214154f22a0a2b415b23a84c8169e8b636ee30155565b611b67565b836001600160a01b0316856001600160a01b031614611b6757611b678582611f06565b6001600160a01b038416611b8357611b7e81611fa3565b611ba6565b846001600160a01b0316846001600160a01b031614611ba657611ba68482612052565b5050505050565b611bb78383612096565b611bc46000848484611d2d565b6107ba5760405162461bcd60e51b815260040161071990612b5b565b60606105e682600081518110611bf857611bf861271d565b016020015160f81c611992565b60606000600360018451611c199190612d43565b611c239190612bec565b905060005b81811015611d26576000611c3d826003612c00565b611c48906001612bc3565b90506000858281518110611c5e57611c5e61271d565b016020015160f81c9050600080611c9e88611c7a866001612bc3565b81518110611c8a57611c8a61271d565b01602001516001600160f81b03191661222f565b9092509050600080611cb58a611c7a886002612bc3565b9150915088611cc386611992565b611ccc86611992565b611cd586611992565b611cde86611992565b611ce786611992565b604051602001611cfc96959493929190612d56565b60405160208183030381529060405298505050505050508080611d1e90612e4d565b915050611c28565b5050919050565b60006001600160a01b0384163b15611e2357604051630a85bd0160e11b81526001600160a01b0385169063150b7a0290611d71903390899088908890600401612e66565b6020604051808303816000875af1925050508015611dac575060408051601f3d908101601f19168201909252611da991810190612ea3565b60015b611e09573d808015611dda576040519150601f19603f3d011682016040523d82523d6000602084013e611ddf565b606091505b508051600003611e015760405162461bcd60e51b815260040161071990612b5b565b805181602001fd5b6001600160e01b031916630a85bd0160e11b149050610eee565b506001949350505050565b60008072184f03e93ff9f4daa797ed6e38ed64bf6a1f0160401b8310611e6d5772184f03e93ff9f4daa797ed6e38ed64bf6a1f0160401b830492506040015b6d04ee2d6d415b85acef81000000008310611e99576d04ee2d6d415b85acef8100000000830492506020015b662386f26fc100008310611eb757662386f26fc10000830492506010015b6305f5e1008310611ecf576305f5e100830492506008015b6127108310611ee357612710830492506004015b60648310611ef5576064830492506002015b600a83106105e65760010192915050565b60006001611f1384610a79565b611f1d9190612d43565b600083815260076020526040902054909150808214611f70576001600160a01b03841660009081526006602090815260408083208584528252808320548484528184208190558352600790915290208190555b5060009182526007602090815260408084208490556001600160a01b039094168352600681528383209183525290812055565b600854600090611fb590600190612d43565b60008381526009602052604081205460088054939450909284908110611fdd57611fdd61271d565b906000526020600020015490508060088381548110611ffe57611ffe61271d565b600091825260208083209091019290925582815260099091526040808220849055858252812055600880548061203657612036612ec0565b6001900381819060005260206000200160009055905550505050565b600061205d83610a79565b6001600160a01b039093166000908152600660209081526040808320868452825280832085905593825260079052919091209190915550565b6001600160a01b0382166120ec5760405162461bcd60e51b815260206004820181905260248201527f4552433732313a206d696e7420746f20746865207a65726f20616464726573736044820152606401610719565b6000818152600260205260409020546001600160a01b0316156121515760405162461bcd60e51b815260206004820152601c60248201527f4552433732313a20746f6b656e20616c7265616479206d696e746564000000006044820152606401610719565b61215f600083836001611a79565b6000818152600260205260409020546001600160a01b0316156121c45760405162461bcd60e51b815260206004820152601c60248201527f4552433732313a20746f6b656e20616c7265616479206d696e746564000000006044820152606401610719565b6001600160a01b038216600081815260036020908152604080832080546001019055848352600290915280822080546001600160a01b0319168417905551839291907fddf252ad1be2c89b69c2b068fc378daa952ba7f163c4a11628f55a4df523b3ef908290a45050565b60008060f883901c612242601082612ed6565b61224d601083612bec565b9250925050915091565b6001600160e01b031981168114610d5757600080fd5b60006020828403121561227f57600080fd5b8135610b6a81612257565b60005b838110156122a557818101518382015260200161228d565b50506000910152565b600081518084526122c681602086016020860161228a565b601f01601f19169290920160200192915050565b602081526000610b6a60208301846122ae565b6000602082840312156122ff57600080fd5b5035919050565b80356001600160a01b0381168114610a7457600080fd5b6000806040838503121561233057600080fd5b61233983612306565b946020939093013593505050565b60008060006060848603121561235c57600080fd5b61236584612306565b925061237360208501612306565b9150604084013590509250925092565b634e487b7160e01b600052604160045260246000fd5b600067ffffffffffffffff808411156123b4576123b4612383565b604051601f8501601f19908116603f011681019082821181831017156123dc576123dc612383565b816040528093508581528686860111156123f557600080fd5b858560208301376000602087830101525050509392505050565b60006020828403121561242157600080fd5b813567ffffffffffffffff81111561243857600080fd5b8201601f8101841361244957600080fd5b610eee84823560208401612399565b60006020828403121561246a57600080fd5b610b6a82612306565b6000806040838503121561248657600080fd5b61248f83612306565b9150602083013580151581146124a457600080fd5b809150509250929050565b600080600080608085870312156124c557600080fd5b6124ce85612306565b93506124dc60208601612306565b925060408501359150606085013567ffffffffffffffff8111156124ff57600080fd5b8501601f8101871361251057600080fd5b61251f87823560208401612399565b91505092959194509250565b6000806040838503121561253e57600080fd5b61254783612306565b915061255560208401612306565b90509250929050565b600181811c9082168061257257607f821691505b60208210810361259257634e487b7160e01b600052602260045260246000fd5b50919050565b6020808252602d908201527f4552433732313a2063616c6c6572206973206e6f7420746f6b656e206f776e6560408201526c1c881bdc88185c1c1c9bdd9959609a1b606082015260800190565b601f8211156107ba57600081815260208120601f850160051c8101602086101561260c5750805b601f850160051c820191505b8181101561262b57828155600101612618565b505050505050565b815167ffffffffffffffff81111561264d5761264d612383565b6126618161265b845461255e565b846125e5565b602080601f831160018114612696576000841561267e5750858301515b600019600386901b1c1916600185901b17855561262b565b600085815260208120601f198616915b828110156126c5578886015182559484019460019091019084016126a6565b50858210156126e35787850151600019600388901b60f8161c191681555b5050505050600190811b01905550565b60408152600061270660408301856122ae565b905060018060a01b03831660208301529392505050565b634e487b7160e01b600052603260045260246000fd5b6000815161274581856020860161228a565b9290920192915050565b7f646174613a696d6167652f7376672b786d6c3b6261736536342c00000000000081526000825161278781601a85016020870161228a565b91909101601a0192915050565b6e7b226e616d65223a224765726d202360881b815283516000906127bf81600f85016020890161228a565b7f222c226465736372697074696f6e223a224765726d7a20617265206261736564600f918401918201526a11161134b6b0b3b2911d1160a91b602f820152845161281081603a84016020890161228a565b6e11161130ba3a3934b13aba32b9911d60891b603a9290910191820152835161284081604984016020880161228a565b607d60f81b60499290910191820152604a0195945050505050565b7f646174613a6170706c69636174696f6e2f6a736f6e3b6261736536342c00000081526000825161289381601d85016020870161228a565b91909101601d0192915050565b60208082526025908201527f4552433732313a207472616e736665722066726f6d20696e636f72726563742060408201526437bbb732b960d91b606082015260800190565b60008084546128f38161255e565b6001828116801561290b57600181146129205761294f565b60ff198416875282151583028701945061294f565b8860005260208060002060005b858110156129465781548a82015290840190820161292d565b50505082870194505b50505050835161296381836020880161228a565b01949350505050565b7f3c7376672069643d276765726d7a2d7376672720786d6c6e733d27687474703a81527f2f2f7777772e77332e6f72672f323030302f737667272070726573657276654160208201527f7370656374526174696f3d27784d696e594d696e206d6565742720766965774260408201527f6f783d27302030203136203136273e3c7374796c653e236765726d7a2d73766760608201527f7b73686170652d72656e646572696e673a20637269737065646765733b7d2e7760808201527f307b66696c6c3a233030303030307d2e77317b66696c6c3a234646464646467d60a08201527f2e77327b66696c6c3a234646303030307d2e77337b66696c6c3a23303046463060c08201527f307d2e77347b66696c6c3a233030303046467d2e77357b66696c6c3a2330304660e08201527f4646467d2e77367b66696c6c3a234646464630307d2e77377b66696c6c3a23466101008201526d23181823233e9e17b9ba3cb6329f60911b6101208201526d3c7265637420636c6173733d277760901b61012e8201526000610eee612b49612b43612b0961013c860188612733565b7f2720783d2730302720793d273030272077696474683d273136272068656967688152673a1e93989b13979f60c11b602082015260280190565b85612733565b651e17b9bb339f60d11b815260060190565b60208082526032908201527f4552433732313a207472616e7366657220746f206e6f6e20455243373231526560408201527131b2b4bb32b91034b6b83632b6b2b73a32b960711b606082015260800190565b634e487b7160e01b600052601160045260246000fd5b808201808211156105e6576105e6612bad565b634e487b7160e01b600052601260045260246000fd5b600082612bfb57612bfb612bd6565b500490565b80820281158282048414176105e6576105e6612bad565b7f7b2274726169745f74797065223a22436f6f7264696e61746573222c2276616c8152643ab2911d1160d91b602082015260008451612c5d81602585016020890161228a565b62089f4b60ea1b60259184019182018190527f7b2274726169745f74797065223a2253706563696573222c2276616c7565223a6028830152601160f91b60488301528551612cb2816049850160208a0161228a565b60499201918201527f7b2274726169745f74797065223a224e616d65222c2276616c7565223a220000604c8201528351612cf381606a84016020880161228a565b61227d60f01b606a9290910191820152606c0195945050505050565b605b60f81b815260008251612d2b81600185016020870161228a565b605d60f81b6001939091019283015250600201919050565b818103818111156105e6576105e6612bad565b60008751612d68818460208c0161228a565b6d3c7265637420636c6173733d277760901b9083019081528751612d9381600e840160208c0161228a565b642720783d2760d81b600e92909101918201528651612db9816013840160208b0161228a565b642720793d2760d81b601392909101918201528551612ddf816018840160208a0161228a565b68272077696474683d2760b81b601892909101918201528451612e0981602184016020890161228a565b6927206865696768743d2760b01b60219290910191820152612e40612e31602b830186612733565b6213979f60e91b815260030190565b9998505050505050505050565b600060018201612e5f57612e5f612bad565b5060010190565b6001600160a01b0385811682528416602082015260408101839052608060608201819052600090612e99908301846122ae565b9695505050505050565b600060208284031215612eb557600080fd5b8151610b6a81612257565b634e487b7160e01b600052603160045260246000fd5b600082612ee557612ee5612bd6565b50069056fe04074211074d1107356607533a079712064411063511064b11063a11062614066d11066211067311067c1106841206961106a51106a712069911068a12068d4106cc1106824106c31106aa110165120169120207446807a61107a911033311033c11033516034411034b11035331035c31038421038b2103971203a51103b61103b91103aa1103a32103c41103ac2103cb1101651201691206032221034311032d21034c1103544802931102a221029c1102ad2102851202953102c611028912029a3102c911029712026421026b21025311023311024412025614024a12023c11025c1101651201691203054458053311053c11023411023b11024516024c4102434102841102931102a22102c31102952102b611028611029712028911029a2102b911028b11029c1102ad2102bd2002cc110165120169120605323c072131072212073411072e31072c12073b11072516075212075c1205654605a624076441076b41078c11077d11079d1107831107721107921107a51107b61107c71207b91107aa1107b42107d51107bb2107da1101651201691202043211043d1104753604a41104b31104ab1104bc11053311053c1105741105851105961105a712059911058a11057b11059b1105ac1105a31105941105a52105c61105aa2105c91104433a054411054b11053516055c2105532101651201691205033411033b1103452603644807461407441107551107641107732107941107a52107c61107921107a121075a11076b11077c21079b1107aa2107c911079614079d1107ae21017512017912074b1107005251009312007312005312005651005a51005711006811007711008821005b11006c11007b11008c214142434445464748494a4b4c4d4e4f505152535455565758595a6162636465666768696a6b6c6d6e6f707172737475767778797a303132333435363738392b2f07064448063516062411062b11052511052a11053614054b11055c31054411055331058411057512058712057912058b1105952105b611059a2105b911059c3105cb1105933105c41101551201591205043468047c21047321042411042b1104952104b611049a2104b911022311022c11023614023b21025c21027d21027221025321023421029312029611028712029911029b1202ad3102a23102d31102dc110165120169120406553606871206431a063211063d11023413024712023913024d11025b12026b11025312026411024211027511028611027712028911027a11028b2102aa1102842102a51102625102b311026d5102bc110155120159120704434a048516034411033516034b11039712038911038b11035c31035331038411038611039a3103953103c61103c911039c1103ad1103931103a21101651201691203073311073c11074458079411079b1107a31107b22107ac1107bd21043516045331047421045c31047b21049712048611048911049a2104b91104952104b611015512015912a26469706673582212203bde0b5aea34c87a5fc8010c072ee89c3968713b836975c0482da36cc5f0116364736f6c63430008150033",
    "linkReferences": {}
  },
  "methodIdentifiers": {
    "approve(address,uint256)": "095ea7b3",
    "balanceOf(address)": "70a08231",
    "exists(uint256)": "4f558e79",
    "getApproved(uint256)": "081812fc",
    "isApprovedForAll(address,address)": "e985e9c5",
    "maxSupply()": "d5abeb01",
    "mint(address)": "6a627842",
    "mintPrice()": "6817c76c",
    "name()": "06fdde03",
    "offchainImageBase()": "8a2620d7",
    "owner()": "8da5cb5b",
    "ownerOf(uint256)": "6352211e",
    "renounceOwnership()": "715018a6",
    "safeTransferFrom(address,address,uint256)": "42842e0e",
    "safeTransferFrom(address,address,uint256,bytes)": "b88d4fde",
    "setApprovalForAll(address,bool)": "a22cb465",
    "setOffchainImageBase(string)": "4d8dcbd1",
    "supportsInterface(bytes4)": "01ffc9a7",
    "symbol()": "95d89b41",
    "tokenAttributes(uint256)": "f2824b53",
    "tokenByIndex(uint256)": "4f6ccce7",
    "tokenImage(uint256)": "cf348425",
    "tokenOfOwnerByIndex(address,uint256)": "2f745c59",
    "tokenOffchainImage(uint256)": "889e8159",
    "tokenSvgImage(uint256)": "99d61b24",
    "tokenURI(uint256)": "c87b56dd",
    "totalSupply()": "18160ddd",
    "transferFrom(address,address,uint256)": "23b872dd",
    "transferOwnership(address)": "f2fde38b"
  },
  "id": 36
}