{
  "abi": [
    {
      "inputs": [],
      "stateMutability": "nonpayable",
      "type": "constructor"
    },
    {
      "anonymous": false,
      "inputs": [
        {
          "indexed": true,
          "internalType": "address",
          "name": "owner",
          "type": "address"
        },
        {
          "indexed": true,
          "internalType": "address",
          "name": "approved",
          "type": "address"
        },
        {
          "indexed": true,
          "internalType": "uint256",
          "name": "tokenId",
          "type": "uint256"
        }
      ],
      "name": "Approval",
      "type": "event"
    },
    {
      "anonymous": false,
      "inputs": [
        {
          "indexed": true,
          "internalType": "address",
          "name": "owner",
          "type": "address"
        },
        {
          "indexed": true,
          "internalType": "address",
          "name": "operator",
          "type": "address"
        },
        {
          "indexed": false,
          "internalType": "bool",
          "name": "approved",
          "type": "bool"
        }
      ],
      "name": "ApprovalForAll",
      "type": "event"
    },
    {
      "anonymous": false,
      "inputs": [
        {
          "indexed": true,
          "internalType": "address",
          "name": "previousOwner",
          "type": "address"
        },
        {
          "indexed": true,
          "internalType": "address",
          "name": "newOwner",
          "type": "address"
        }
      ],
      "name": "OwnershipTransferred",
      "type": "event"
    },
    {
      "anonymous": false,
      "inputs": [
        {
          "indexed": true,
          "internalType": "address",
          "name": "from",
          "type": "address"
        },
        {
          "indexed": true,
          "internalType": "address",
          "name": "to",
          "type": "address"
        },
        {
          "indexed": true,
          "internalType": "uint256",
          "name": "tokenId",
          "type": "uint256"
        }
      ],
      "name": "Transfer",
      "type": "event"
    },
    {
      "inputs": [
        {
          "internalType": "address",
          "name": "to",
          "type": "address"
        },
        {
          "internalType": "uint256",
          "name": "tokenId",
          "type": "uint256"
        }
      ],
      "name": "approve",
      "outputs": [],
      "stateMutability": "nonpayable",
      "type": "function"
    },
    {
      "inputs": [
        {
          "internalType": "address",
          "name": "owner",
          "type": "address"
        }
      ],
      "name": "balanceOf",
      "outputs": [
        {
          "internalType": "uint256",
          "name": "",
          "type": "uint256"
        }
      ],
      "stateMutability": "view",
      "type": "function"
    },
    {
      "inputs": [
        {
          "internalType": "uint256",
          "name": "tokenId",
          "type": "uint256"
        }
      ],
      "name": "getApproved",
      "outputs": [
        {
          "internalType": "address",
          "name": "",
          "type": "address"
        }
      ],
      "stateMutability": "view",
      "type": "function"
    },
    {
      "inputs": [
        {
          "internalType": "address",
          "name": "owner",
          "type": "address"
        },
        {
          "internalType": "address",
          "name": "operator",
          "type": "address"
        }
      ],
      "name": "isApprovedForAll",
      "outputs": [
        {
          "internalType": "bool",
          "name": "",
          "type": "bool"
        }
      ],
      "stateMutability": "view",
      "type": "function"
    },
    {
      "inputs": [],
      "name": "name",
      "outputs": [
        {
          "internalType": "string",
          "name": "",
          "type": "string"
        }
      ],
      "stateMutability": "view",
      "type": "function"
    },
    {
      "inputs": [],
      "name": "owner",
      "outputs": [
        {
          "internalType": "address",
          "name": "",
          "type": "address"
        }
      ],
      "stateMutability": "view",
      "type": "function"
    },
    {
      "inputs": [
        {
          "internalType": "uint256",
          "name": "tokenId",
          "type": "uint256"
        }
      ],
      "name": "ownerOf",
      "outputs": [
        {
          "internalType": "address",
          "name": "",
          "type": "address"
        }
      ],
      "stateMutability": "view",
      "type": "function"
    },
    {
      "inputs": [],
      "name": "renounceOwnership",
      "outputs": [],
      "stateMutability": "nonpayable",
      "type": "function"
    },
    {
      "inputs": [
        {
          "internalType": "address",
          "name": "from",
          "type": "address"
        },
        {
          "internalType": "address",
          "name": "to",
          "type": "address"
        },
        {
          "internalType": "uint256",
          "name": "tokenId",
          "type": "uint256"
        }
      ],
      "name": "safeTransferFrom",
      "outputs": [],
      "stateMutability": "nonpayable",
      "type": "function"
    },
    {
      "inputs": [
        {
          "internalType": "address",
          "name": "from",
          "type": "address"
        },
        {
          "internalType": "address",
          "name": "to",
          "type": "address"
        },
        {
          "internalType": "uint256",
          "name": "tokenId",
          "type": "uint256"
        },
        {
          "internalType": "bytes",
          "name": "data",
          "type": "bytes"
        }
      ],
      "name": "safeTransferFrom",
      "outputs": [],
      "stateMutability": "nonpayable",
      "type": "function"
    },
    {
      "inputs": [
        {
          "internalType": "address",
          "name": "operator",
          "type": "address"
        },
        {
          "internalType": "bool",
          "name": "approved",
          "type": "bool"
        }
      ],
      "name": "setApprovalForAll",
      "outputs": [],
      "stateMutability": "nonpayable",
      "type": "function"
    },
    {
      "inputs": [
        {
          "internalType": "string",
          "name": "uri",
          "type": "string"
        }
      ],
      "name": "setOffchainURI",
      "outputs": [],
      "stateMutability": "nonpayable",
      "type": "function"
    },
    {
      "inputs": [
        {
          "internalType": "uint256",
          "name": "tokenId",
          "type": "uint256"
        },
        {
          "internalType": "bool",
          "name": "value",
          "type": "bool"
        }
      ],
      "name": "setTokenSvgOverride",
      "outputs": [],
      "stateMutability": "nonpayable",
      "type": "function"
    },
    {
      "inputs": [
        {
          "internalType": "bytes4",
          "name": "interfaceId",
          "type": "bytes4"
        }
      ],
      "name": "supportsInterface",
      "outputs": [
        {
          "internalType": "bool",
          "name": "",
          "type": "bool"
        }
      ],
      "stateMutability": "view",
      "type": "function"
    },
    {
      "inputs": [],
      "name": "symbol",
      "outputs": [
        {
          "internalType": "string",
          "name": "",
          "type": "string"
        }
      ],
      "stateMutability": "view",
      "type": "function"
    },
    {
      "inputs": [
        {
          "internalType": "uint256",
          "name": "tokenId",
          "type": "uint256"
        }
      ],
      "name": "tokenAttributes",
      "outputs": [
        {
          "internalType": "string",
          "name": "",
          "type": "string"
        }
      ],
      "stateMutability": "view",
      "type": "function"
    },
    {
      "inputs": [
        {
          "internalType": "uint256",
          "name": "index",
          "type": "uint256"
        }
      ],
      "name": "tokenByIndex",
      "outputs": [
        {
          "internalType": "uint256",
          "name": "",
          "type": "uint256"
        }
      ],
      "stateMutability": "view",
      "type": "function"
    },
    {
      "inputs": [
        {
          "internalType": "uint256",
          "name": "tokenId",
          "type": "uint256"
        }
      ],
      "name": "tokenImage",
      "outputs": [
        {
          "internalType": "string",
          "name": "",
          "type": "string"
        }
      ],
      "stateMutability": "view",
      "type": "function"
    },
    {
      "inputs": [
        {
          "internalType": "address",
          "name": "owner",
          "type": "address"
        },
        {
          "internalType": "uint256",
          "name": "index",
          "type": "uint256"
        }
      ],
      "name": "tokenOfOwnerByIndex",
      "outputs": [
        {
          "internalType": "uint256",
          "name": "",
          "type": "uint256"
        }
      ],
      "stateMutability": "view",
      "type": "function"
    },
    {
      "inputs": [
        {
          "internalType": "uint256",
          "name": "tokenId",
          "type": "uint256"
        }
      ],
      "name": "tokenSvg",
      "outputs": [
        {
          "internalType": "string",
          "name": "",
          "type": "string"
        }
      ],
      "stateMutability": "view",
      "type": "function"
    },
    {
      "inputs": [
        {
          "internalType": "uint256",
          "name": "tokenId",
          "type": "uint256"
        }
      ],
      "name": "tokenURI",
      "outputs": [
        {
          "internalType": "string",
          "name": "",
          "type": "string"
        }
      ],
      "stateMutability": "view",
      "type": "function"
    },
    {
      "inputs": [],
      "name": "totalSupply",
      "outputs": [
        {
          "internalType": "uint256",
          "name": "",
          "type": "uint256"
        }
      ],
      "stateMutability": "view",
      "type": "function"
    },
    {
      "inputs": [
        {
          "internalType": "address",
          "name": "from",
          "type": "address"
        },
        {
          "internalType": "address",
          "name": "to",
          "type": "address"
        },
        {
          "internalType": "uint256",
          "name": "tokenId",
          "type": "uint256"
        }
      ],
      "name": "transferFrom",
      "outputs": [],
      "stateMutability": "nonpayable",
      "type": "function"
    },
    {
      "inputs": [
        {
          "internalType": "address",
          "name": "newOwner",
          "type": "address"
        }
      ],
      "name": "transferOwnership",
      "outputs": [],
      "stateMutability": "nonpayable",
      "type": "function"
    }
  ],
  "bytecode": {
    "object": "0x60806040523480156200001157600080fd5b506040518060400160405280600c81526020016b537472656574204765726d7360a01b815250604051806040016040528060048152602001634745524d60e01b8152508160009081620000659190620001c9565b506001620000748282620001c9565b505050620000916200008b620000ce60201b60201c565b620000d2565b60408051808201909152601081526f7374726565746765726d732e636f6d2f60801b6020820152600b90620000c79082620001c9565b5062000295565b3390565b600a80546001600160a01b038381166001600160a01b0319831681179093556040519116919082907f8be0079c531659141344cd1fd0a4f28419497f9722a3daafe3b4186f6b6457e090600090a35050565b634e487b7160e01b600052604160045260246000fd5b600181811c908216806200014f57607f821691505b6020821081036200017057634e487b7160e01b600052602260045260246000fd5b50919050565b601f821115620001c457600081815260208120601f850160051c810160208610156200019f5750805b601f850160051c820191505b81811015620001c057828155600101620001ab565b5050505b505050565b81516001600160401b03811115620001e557620001e562000124565b620001fd81620001f684546200013a565b8462000176565b602080601f8311600181146200023557600084156200021c5750858301515b600019600386901b1c1916600185901b178555620001c0565b600085815260208120601f198616915b82811015620002665788860151825594840194600190910190840162000245565b5085821015620002855787850151600019600388901b60f8161c191681555b5050505050600190811b01905550565b61227d80620002a56000396000f3fe608060405234801561001057600080fd5b50600436106101585760003560e01c8063715018a6116100c3578063c87b56dd1161007c578063c87b56dd146102cb578063cf348425146102de578063d5b13006146102f1578063e985e9c514610304578063f2824b5314610340578063f2fde38b1461035457600080fd5b8063715018a6146102715780638da5cb5b14610279578063949490b31461028a57806395d89b411461029d578063a22cb465146102a5578063b88d4fde146102b857600080fd5b806323b872dd1161011557806323b872dd146101ff5780632f745c591461021257806342842e0e146102255780634f6ccce7146102385780636352211e1461024b57806370a082311461025e57600080fd5b806301ffc9a71461015d57806306fdde0314610185578063081812fc1461019a578063095ea7b3146101c5578063169f058a146101da57806318160ddd146101ed575b600080fd5b61017061016b36600461178e565b610367565b60405190151581526020015b60405180910390f35b61018d610392565b60405161017c9190611802565b6101ad6101a8366004611815565b610424565b6040516001600160a01b03909116815260200161017c565b6101d86101d336600461184a565b61044b565b005b6101d86101e8366004611884565b610565565b6008545b60405190815260200161017c565b6101d861020d3660046118b0565b6105a8565b6101f161022036600461184a565b6105d9565b6101d86102333660046118b0565b61066f565b6101f1610246366004611815565b61068a565b6101ad610259366004611815565b61071d565b6101f161026c3660046118ec565b61077d565b6101d8610803565b600a546001600160a01b03166101ad565b6101d8610298366004611993565b610817565b61018d61082f565b6101d86102b33660046119dc565b61083e565b6101d86102c6366004611a06565b610849565b61018d6102d9366004611815565b610881565b61018d6102ec366004611815565b6108f7565b61018d6102ff366004611815565b610936565b610170610312366004611a82565b6001600160a01b03918216600090815260056020908152604080832093909416825291909152205460ff1690565b61018d61034e366004611815565b50606090565b6101d86103623660046118ec565b6109b6565b60006001600160e01b0319821663780e9d6360e01b148061038c575061038c82610a2f565b92915050565b6060600080546103a190611aac565b80601f01602080910402602001604051908101604052809291908181526020018280546103cd90611aac565b801561041a5780601f106103ef5761010080835404028352916020019161041a565b820191906000526020600020905b8154815290600101906020018083116103fd57829003601f168201915b5050505050905090565b600061042f82610a7f565b506000908152600460205260409020546001600160a01b031690565b60006104568261071d565b9050806001600160a01b0316836001600160a01b0316036104c85760405162461bcd60e51b815260206004820152602160248201527f4552433732313a20617070726f76616c20746f2063757272656e74206f776e656044820152603960f91b60648201526084015b60405180910390fd5b336001600160a01b03821614806104e457506104e48133610312565b6105565760405162461bcd60e51b815260206004820152603d60248201527f4552433732313a20617070726f76652063616c6c6572206973206e6f7420746f60448201527f6b656e206f776e6572206f7220617070726f76656420666f7220616c6c00000060648201526084016104bf565b6105608383610ade565b505050565b6000828152600260205260409020546001600160a01b0316331461058857600080fd5b6000918252600d6020526040909120805460ff1916911515919091179055565b6105b23382610b4c565b6105ce5760405162461bcd60e51b81526004016104bf90611ae6565b610560838383610bcb565b60006105e48361077d565b82106106465760405162461bcd60e51b815260206004820152602b60248201527f455243373231456e756d657261626c653a206f776e657220696e646578206f7560448201526a74206f6620626f756e647360a81b60648201526084016104bf565b506001600160a01b03919091166000908152600660209081526040808320938352929052205490565b61056083838360405180602001604052806000815250610849565b600061069560085490565b82106106f85760405162461bcd60e51b815260206004820152602c60248201527f455243373231456e756d657261626c653a20676c6f62616c20696e646578206f60448201526b7574206f6620626f756e647360a01b60648201526084016104bf565b6008828154811061070b5761070b611b33565b90600052602060002001549050919050565b6000818152600260205260408120546001600160a01b03168061038c5760405162461bcd60e51b8152602060048201526018602482015277115490cdcc8c4e881a5b9d985b1a59081d1bdad95b88125160421b60448201526064016104bf565b60006001600160a01b0382166107e75760405162461bcd60e51b815260206004820152602960248201527f4552433732313a2061646472657373207a65726f206973206e6f7420612076616044820152683634b21037bbb732b960b91b60648201526084016104bf565b506001600160a01b031660009081526003602052604090205490565b61080b610d3c565b6108156000610d96565b565b61081f610d3c565b600b61082b8282611b97565b5050565b6060600180546103a190611aac565b61082b338383610de8565b6108533383610b4c565b61086f5760405162461bcd60e51b81526004016104bf90611ae6565b61087b84848484610eb6565b50505050565b606061088c82610a7f565b6108d161089883610ee9565b6108a96108a4856108f7565b610f7c565b60606040516020016108bd93929190611c57565b604051602081830303815290604052610f7c565b6040516020016108e19190611d55565b6040516020818303038152906040529050919050565b6000818152600d602052604090205460609060ff161561091a5761038c82610936565b600b61092583610ee9565b6040516020016108e1929190611d9a565b606060006040518060e0016040528060b2815260200161219660b2913990506000610960846110cf565b6040516020016109709190611e21565b6040516020818303038152906040529050818161098c8661112f565b60405160200161099e93929190611e8f565b60405160208183030381529060405292505050919050565b6109be610d3c565b6001600160a01b038116610a235760405162461bcd60e51b815260206004820152602660248201527f4f776e61626c653a206e6577206f776e657220697320746865207a65726f206160448201526564647265737360d01b60648201526084016104bf565b610a2c81610d96565b50565b60006001600160e01b031982166380ac58cd60e01b1480610a6057506001600160e01b03198216635b5e139f60e01b145b8061038c57506301ffc9a760e01b6001600160e01b031983161461038c565b6000818152600260205260409020546001600160a01b0316610a2c5760405162461bcd60e51b8152602060048201526018602482015277115490cdcc8c4e881a5b9d985b1a59081d1bdad95b88125160421b60448201526064016104bf565b600081815260046020526040902080546001600160a01b0319166001600160a01b0384169081179091558190610b138261071d565b6001600160a01b03167f8c5be1e5ebec7d5bd14f71427d1e84f3dd0314c0f7b2291e5b200ac8c7c3b92560405160405180910390a45050565b600080610b588361071d565b9050806001600160a01b0316846001600160a01b03161480610b9f57506001600160a01b0380821660009081526005602090815260408083209388168352929052205460ff165b80610bc35750836001600160a01b0316610bb884610424565b6001600160a01b0316145b949350505050565b826001600160a01b0316610bde8261071d565b6001600160a01b031614610c045760405162461bcd60e51b81526004016104bf90611ee3565b6001600160a01b038216610c665760405162461bcd60e51b8152602060048201526024808201527f4552433732313a207472616e7366657220746f20746865207a65726f206164646044820152637265737360e01b60648201526084016104bf565b610c7383838360016112b9565b826001600160a01b0316610c868261071d565b6001600160a01b031614610cac5760405162461bcd60e51b81526004016104bf90611ee3565b600081815260046020908152604080832080546001600160a01b03199081169091556001600160a01b0387811680865260038552838620805460001901905590871680865283862080546001019055868652600290945282852080549092168417909155905184937fddf252ad1be2c89b69c2b068fc378daa952ba7f163c4a11628f55a4df523b3ef91a4505050565b600a546001600160a01b031633146108155760405162461bcd60e51b815260206004820181905260248201527f4f776e61626c653a2063616c6c6572206973206e6f7420746865206f776e657260448201526064016104bf565b600a80546001600160a01b038381166001600160a01b0319831681179093556040519116919082907f8be0079c531659141344cd1fd0a4f28419497f9722a3daafe3b4186f6b6457e090600090a35050565b816001600160a01b0316836001600160a01b031603610e495760405162461bcd60e51b815260206004820152601960248201527f4552433732313a20617070726f766520746f2063616c6c65720000000000000060448201526064016104bf565b6001600160a01b03838116600081815260056020908152604080832094871680845294825291829020805460ff191686151590811790915591519182527f17307eab39ab6107e8899845ad3d59bd9653f200f220920489ca2b5937696c31910160405180910390a3505050565b610ec1848484610bcb565b610ecd848484846113ed565b61087b5760405162461bcd60e51b81526004016104bf90611f28565b60606000610ef6836114ee565b600101905060008167ffffffffffffffff811115610f1657610f16611907565b6040519080825280601f01601f191660200182016040528015610f40576020820181803683370190505b5090508181016020015b600019016f181899199a1a9b1b9c1cb0b131b232b360811b600a86061a8153600a8504945084610f4a57509392505050565b60608151600003610f9b57505060408051602081019091526000815290565b60006040518060600160405280604081526020016121566040913990506000600384516002610fca9190611fa6565b610fd49190611fb9565b610fdf906004611fcd565b67ffffffffffffffff811115610ff757610ff7611907565b6040519080825280601f01601f191660200182016040528015611021576020820181803683370190505b509050600182016020820185865187015b8082101561108d576003820191508151603f8160121c168501518453600184019350603f81600c1c168501518453600184019350603f8160061c168501518453600184019350603f8116850151845350600183019250611032565b50506003865106600181146110a957600281146110bc576110c4565b603d6001830353603d60028303536110c4565b603d60018303535b509195945050505050565b6000818152600c60205260408120805460609261038c92916110f090611aac565b81106110fe576110fe611b33565b81546001161561111d5790600052602060002090602091828204019190065b9054600160f81b911a0260f81c610ee9565b6060600060026001600c6000868152602001908152602001600020805461115590611aac565b611160929150611fe4565b61116a9190611fb9565b905060005b818110156112b2576000611184826002611fcd565b61118f906001611fa6565b90506000806111f5600c60008981526020019081526020016000208481546111b690611aac565b81106111c4576111c4611b33565b8154600116156111e35790600052602060002090602091828204019190065b9054600160f81b911a0260f81c6115c6565b6000898152600c6020526040812092945090925090611215856001611fa6565b815461122090611aac565b811061122e5761122e611b33565b81546001161561124d5790600052602060002090602091828204019190065b9054600160f81b911a0260f81c90508661126682610ee9565b61126f85610ee9565b61127885610ee9565b60405160200161128b9493929190611ff7565b604051602081830303815290604052505050505080806112aa906120b8565b91505061116f565b5050919050565b60018111156113285760405162461bcd60e51b815260206004820152603560248201527f455243373231456e756d657261626c653a20636f6e7365637574697665207472604482015274185b9cd9995c9cc81b9bdd081cdd5c1c1bdc9d1959605a1b60648201526084016104bf565b816001600160a01b0385166113845761137f81600880546000838152600960205260408120829055600182018355919091527ff3f7a9fe364faab93b216da50a3214154f22a0a2b415b23a84c8169e8b636ee30155565b6113a7565b836001600160a01b0316856001600160a01b0316146113a7576113a785826115e8565b6001600160a01b0384166113c3576113be81611685565b6113e6565b846001600160a01b0316846001600160a01b0316146113e6576113e68482611734565b5050505050565b60006001600160a01b0384163b156114e357604051630a85bd0160e11b81526001600160a01b0385169063150b7a02906114319033908990889088906004016120d1565b6020604051808303816000875af192505050801561146c575060408051601f3d908101601f191682019092526114699181019061210e565b60015b6114c9573d80801561149a576040519150601f19603f3d011682016040523d82523d6000602084013e61149f565b606091505b5080516000036114c15760405162461bcd60e51b81526004016104bf90611f28565b805181602001fd5b6001600160e01b031916630a85bd0160e11b149050610bc3565b506001949350505050565b60008072184f03e93ff9f4daa797ed6e38ed64bf6a1f0160401b831061152d5772184f03e93ff9f4daa797ed6e38ed64bf6a1f0160401b830492506040015b6d04ee2d6d415b85acef81000000008310611559576d04ee2d6d415b85acef8100000000830492506020015b662386f26fc10000831061157757662386f26fc10000830492506010015b6305f5e100831061158f576305f5e100830492506008015b61271083106115a357612710830492506004015b606483106115b5576064830492506002015b600a831061038c5760010192915050565b6000806115d460108461212b565b6115df601085611fb9565b91509150915091565b600060016115f58461077d565b6115ff9190611fe4565b600083815260076020526040902054909150808214611652576001600160a01b03841660009081526006602090815260408083208584528252808320548484528184208190558352600790915290208190555b5060009182526007602090815260408084208490556001600160a01b039094168352600681528383209183525290812055565b60085460009061169790600190611fe4565b600083815260096020526040812054600880549394509092849081106116bf576116bf611b33565b9060005260206000200154905080600883815481106116e0576116e0611b33565b60009182526020808320909101929092558281526009909152604080822084905585825281205560088054806117185761171861213f565b6001900381819060005260206000200160009055905550505050565b600061173f8361077d565b6001600160a01b039093166000908152600660209081526040808320868452825280832085905593825260079052919091209190915550565b6001600160e01b031981168114610a2c57600080fd5b6000602082840312156117a057600080fd5b81356117ab81611778565b9392505050565b60005b838110156117cd5781810151838201526020016117b5565b50506000910152565b600081518084526117ee8160208601602086016117b2565b601f01601f19169290920160200192915050565b6020815260006117ab60208301846117d6565b60006020828403121561182757600080fd5b5035919050565b80356001600160a01b038116811461184557600080fd5b919050565b6000806040838503121561185d57600080fd5b6118668361182e565b946020939093013593505050565b8035801515811461184557600080fd5b6000806040838503121561189757600080fd5b823591506118a760208401611874565b90509250929050565b6000806000606084860312156118c557600080fd5b6118ce8461182e565b92506118dc6020850161182e565b9150604084013590509250925092565b6000602082840312156118fe57600080fd5b6117ab8261182e565b634e487b7160e01b600052604160045260246000fd5b600067ffffffffffffffff8084111561193857611938611907565b604051601f8501601f19908116603f0116810190828211818310171561196057611960611907565b8160405280935085815286868601111561197957600080fd5b858560208301376000602087830101525050509392505050565b6000602082840312156119a557600080fd5b813567ffffffffffffffff8111156119bc57600080fd5b8201601f810184136119cd57600080fd5b610bc38482356020840161191d565b600080604083850312156119ef57600080fd5b6119f88361182e565b91506118a760208401611874565b60008060008060808587031215611a1c57600080fd5b611a258561182e565b9350611a336020860161182e565b925060408501359150606085013567ffffffffffffffff811115611a5657600080fd5b8501601f81018713611a6757600080fd5b611a768782356020840161191d565b91505092959194509250565b60008060408385031215611a9557600080fd5b611a9e8361182e565b91506118a76020840161182e565b600181811c90821680611ac057607f821691505b602082108103611ae057634e487b7160e01b600052602260045260246000fd5b50919050565b6020808252602d908201527f4552433732313a2063616c6c6572206973206e6f7420746f6b656e206f776e6560408201526c1c881bdc88185c1c1c9bdd9959609a1b606082015260800190565b634e487b7160e01b600052603260045260246000fd5b601f82111561056057600081815260208120601f850160051c81016020861015611b705750805b601f850160051c820191505b81811015611b8f57828155600101611b7c565b505050505050565b815167ffffffffffffffff811115611bb157611bb1611907565b611bc581611bbf8454611aac565b84611b49565b602080601f831160018114611bfa5760008415611be25750858301515b600019600386901b1c1916600185901b178555611b8f565b600085815260208120601f198616915b82811015611c2957888601518255948401946001909101908401611c0a565b5085821015611c475787850151600019600388901b60f8161c191681555b5050505050600190811b01905550565b7f7b226e616d65223a2022537472656574204765726d2023000000000000000000815260008451611c8f8160178501602089016117b2565b7f222c20226465736372697074696f6e223a2022537472656574204765726d73206017918401918201527f6973206261736564222c2022696d616765223a2022646174613a696d6167652f60378201526e1cdd99cade1b5b0ed8985cd94d8d0b608a1b60578201528451611d0a8160668401602089016117b2565b6e11161130ba3a3934b13aba32b9911d60891b606692909101918201528351611d3a8160758401602088016117b2565b607d60f81b6075929091019182015260760195945050505050565b7f646174613a6170706c69636174696f6e2f6a736f6e3b6261736536342c000000815260008251611d8d81601d8501602087016117b2565b91909101601d0192915050565b6000808454611da881611aac565b60018281168015611dc05760018114611dd557611e04565b60ff1984168752821515830287019450611e04565b8860005260208060002060005b85811015611dfb5781548a820152908401908201611de2565b50505082870194505b505050508351611e188183602088016117b2565b01949350505050565b6d3c7265637420636c6173733d277760901b815260008251611e4a81600e8501602087016117b2565b7f2720783d2730302720793d273030272077696474683d27313627206865696768600e939091019283015250673a1e93989b13979f60c11b602e820152603601919050565b60008451611ea18184602089016117b2565b845190830190611eb58183602089016117b2565b8451910190611ec88183602088016117b2565b651e17b9bb339f60d11b910190815260060195945050505050565b60208082526025908201527f4552433732313a207472616e736665722066726f6d20696e636f72726563742060408201526437bbb732b960d91b606082015260800190565b60208082526032908201527f4552433732313a207472616e7366657220746f206e6f6e20455243373231526560408201527131b2b4bb32b91034b6b83632b6b2b73a32b960711b606082015260800190565b634e487b7160e01b600052601260045260246000fd5b634e487b7160e01b600052601160045260246000fd5b8082018082111561038c5761038c611f90565b600082611fc857611fc8611f7a565b500490565b808202811582820484141761038c5761038c611f90565b8181038181111561038c5761038c611f90565b60008551612009818460208a016117b2565b6d3c7265637420636c6173733d277760901b908301908152855161203481600e840160208a016117b2565b642720783d2760d81b600e9290910191820152845161205a8160138401602089016117b2565b642720793d2760d81b6013929091019182015283516120808160188401602088016117b2565b7f272077696474683d273127206865696768743d2731272f3e0000000000000000601892909101918201526030019695505050505050565b6000600182016120ca576120ca611f90565b5060010190565b6001600160a01b0385811682528416602082015260408101839052608060608201819052600090612104908301846117d6565b9695505050505050565b60006020828403121561212057600080fd5b81516117ab81611778565b60008261213a5761213a611f7a565b500690565b634e487b7160e01b600052603160045260246000fdfe4142434445464748494a4b4c4d4e4f505152535455565758595a6162636465666768696a6b6c6d6e6f707172737475767778797a303132333435363738392b2f3c7376672069643d277374726565742d6765726d2d7376672720786d6c6e733d27687474703a2f2f7777772e77332e6f72672f323030302f73766727207072657365727665417370656374526174696f3d27784d696e594d696e206d656574272076696577426f783d27302030203136203136273e3c7374796c653e237374726565742d6765726d2d7376677b73686170652d72656e646572696e673a20637269737065646765733b7d3c2f7374796c653ea26469706673582212203887759d16ac5916ee0884cc3ec869bc2553e5d430bbe835d42a129c7fc8100964736f6c63430008150033",
    "linkReferences": {}
  },
  "methodIdentifiers": {
    "approve(address,uint256)": "095ea7b3",
    "balanceOf(address)": "70a08231",
    "getApproved(uint256)": "081812fc",
    "isApprovedForAll(address,address)": "e985e9c5",
    "name()": "06fdde03",
    "owner()": "8da5cb5b",
    "ownerOf(uint256)": "6352211e",
    "renounceOwnership()": "715018a6",
    "safeTransferFrom(address,address,uint256)": "42842e0e",
    "safeTransferFrom(address,address,uint256,bytes)": "b88d4fde",
    "setApprovalForAll(address,bool)": "a22cb465",
    "setOffchainURI(string)": "949490b3",
    "setTokenSvgOverride(uint256,bool)": "169f058a",
    "supportsInterface(bytes4)": "01ffc9a7",
    "symbol()": "95d89b41",
    "tokenAttributes(uint256)": "f2824b53",
    "tokenByIndex(uint256)": "4f6ccce7",
    "tokenImage(uint256)": "cf348425",
    "tokenOfOwnerByIndex(address,uint256)": "2f745c59",
    "tokenSvg(uint256)": "d5b13006",
    "tokenURI(uint256)": "c87b56dd",
    "totalSupply()": "18160ddd",
    "transferFrom(address,address,uint256)": "23b872dd",
    "transferOwnership(address)": "f2fde38b"
  },
  "id": 15
}